{
  "contractName": "Upstream",
  "abi": [
    {
      "constant": true,
      "inputs": [],
      "name": "explorationsCount",
      "outputs": [
        {
          "name": "",
          "type": "uint256"
        }
      ],
      "payable": false,
      "stateMutability": "view",
      "type": "function"
    },
    {
      "constant": true,
      "inputs": [
        {
          "name": "",
          "type": "uint256"
        }
      ],
      "name": "developments",
      "outputs": [
        {
          "name": "code",
          "type": "uint256"
        },
        {
          "name": "evaluation",
          "type": "uint256"
        },
        {
          "name": "engineering",
          "type": "uint256"
        },
        {
          "name": "last_investment_owner",
          "type": "address"
        }
      ],
      "payable": false,
      "stateMutability": "view",
      "type": "function"
    },
    {
      "constant": true,
      "inputs": [
        {
          "name": "",
          "type": "uint256"
        }
      ],
      "name": "productions",
      "outputs": [
        {
          "name": "code",
          "type": "uint256"
        },
        {
          "name": "mobilization",
          "type": "uint256"
        },
        {
          "name": "production",
          "type": "uint256"
        },
        {
          "name": "monitoring",
          "type": "uint256"
        },
        {
          "name": "last_investment_owner",
          "type": "address"
        }
      ],
      "payable": false,
      "stateMutability": "view",
      "type": "function"
    },
    {
      "constant": true,
      "inputs": [],
      "name": "developmentsCount",
      "outputs": [
        {
          "name": "",
          "type": "uint256"
        }
      ],
      "payable": false,
      "stateMutability": "view",
      "type": "function"
    },
    {
      "constant": true,
      "inputs": [
        {
          "name": "",
          "type": "uint256"
        }
      ],
      "name": "explorations",
      "outputs": [
        {
          "name": "code",
          "type": "uint256"
        },
        {
          "name": "geology",
          "type": "uint256"
        },
        {
          "name": "drilling",
          "type": "uint256"
        },
        {
          "name": "last_investment_owner",
          "type": "address"
        }
      ],
      "payable": false,
      "stateMutability": "view",
      "type": "function"
    },
    {
      "constant": true,
      "inputs": [],
      "name": "amount",
      "outputs": [
        {
          "name": "",
          "type": "uint256"
        }
      ],
      "payable": false,
      "stateMutability": "view",
      "type": "function"
    },
    {
      "constant": true,
      "inputs": [],
      "name": "productionsCount",
      "outputs": [
        {
          "name": "",
          "type": "uint256"
        }
      ],
      "payable": false,
      "stateMutability": "view",
      "type": "function"
    },
    {
      "inputs": [],
      "payable": false,
      "stateMutability": "nonpayable",
      "type": "constructor"
    },
    {
      "anonymous": false,
      "inputs": [
        {
          "indexed": true,
          "name": "_code",
          "type": "uint256"
        }
      ],
      "name": "createdEvent",
      "type": "event"
    },
    {
      "constant": false,
      "inputs": [
        {
          "name": "_amount",
          "type": "uint256"
        }
      ],
      "name": "addAmount",
      "outputs": [],
      "payable": false,
      "stateMutability": "nonpayable",
      "type": "function"
    },
    {
      "constant": false,
      "inputs": [
        {
          "name": "_geology",
          "type": "uint256"
        },
        {
          "name": "_drilling",
          "type": "uint256"
        }
      ],
      "name": "spendInExploration",
      "outputs": [],
      "payable": false,
      "stateMutability": "nonpayable",
      "type": "function"
    },
    {
      "constant": false,
      "inputs": [
        {
          "name": "_evaluation",
          "type": "uint256"
        },
        {
          "name": "_engineering",
          "type": "uint256"
        }
      ],
      "name": "spendInDevelopment",
      "outputs": [],
      "payable": false,
      "stateMutability": "nonpayable",
      "type": "function"
    },
    {
      "constant": false,
      "inputs": [
        {
          "name": "_mobilization",
          "type": "uint256"
        },
        {
          "name": "_production",
          "type": "uint256"
        },
        {
          "name": "_monitoring",
          "type": "uint256"
        }
      ],
      "name": "spendInProduction",
      "outputs": [],
      "payable": false,
      "stateMutability": "nonpayable",
      "type": "function"
    },
    {
      "constant": true,
      "inputs": [],
      "name": "getDevelopmentSpent",
      "outputs": [
        {
          "name": "",
          "type": "uint256"
        },
        {
          "name": "",
          "type": "uint256"
        }
      ],
      "payable": false,
      "stateMutability": "view",
      "type": "function"
    },
    {
      "constant": true,
      "inputs": [],
      "name": "getProductionSpent",
      "outputs": [
        {
          "name": "",
          "type": "uint256"
        },
        {
          "name": "",
          "type": "uint256"
        },
        {
          "name": "",
          "type": "uint256"
        }
      ],
      "payable": false,
      "stateMutability": "view",
      "type": "function"
    },
    {
      "constant": true,
      "inputs": [],
      "name": "getExplorationSpent",
      "outputs": [
        {
          "name": "",
          "type": "uint256"
        },
        {
          "name": "",
          "type": "uint256"
        }
      ],
      "payable": false,
      "stateMutability": "view",
      "type": "function"
    }
  ],
  "bytecode": "0x608060405234801561001057600080fd5b50610021600061002660201b60201c565b610034565b806000540160008190555050565b610c92806100436000396000f3fe608060405234801561001057600080fd5b50600436106100ea5760003560e01c8063819d13481161008c578063aa8c217c11610066578063aa8c217c146103b4578063b31f75f0146103d2578063baa19e83146103f0578063c696a92d14610415576100ea565b8063819d1348146102e757806388f3335b146103055780639560688614610331576100ea565b806313662679116100c8578063136626791461017357806315292f53146101f6578063234049f314610280578063386b242b146102c2576100ea565b80630912f232146100ef5780630df64cfa1461011d5780630e7f8bac1461013b575b600080fd5b61011b6004803603602081101561010557600080fd5b810190808035906020019092919050505061044d565b005b61012561045b565b6040518082815260200191505060405180910390f35b6101716004803603604081101561015157600080fd5b810190808035906020019092919080359060200190929190505050610461565b005b61019f6004803603602081101561018957600080fd5b8101908080359060200190929190505050610574565b604051808581526020018481526020018381526020018273ffffffffffffffffffffffffffffffffffffffff1673ffffffffffffffffffffffffffffffffffffffff16815260200194505050505060405180910390f35b6102226004803603602081101561020c57600080fd5b81019080803590602001909291905050506105c4565b604051808681526020018581526020018481526020018381526020018273ffffffffffffffffffffffffffffffffffffffff1673ffffffffffffffffffffffffffffffffffffffff1681526020019550505050505060405180910390f35b6102c06004803603606081101561029657600080fd5b8101908080359060200190929190803590602001909291908035906020019092919050505061061a565b005b6102ca610741565b604051808381526020018281526020019250505060405180910390f35b6102ef6107ae565b6040518082815260200191505060405180910390f35b61030d6107b4565b60405180848152602001838152602001828152602001935050505060405180910390f35b61035d6004803603602081101561034757600080fd5b8101908080359060200190929190505050610848565b604051808581526020018481526020018381526020018273ffffffffffffffffffffffffffffffffffffffff1673ffffffffffffffffffffffffffffffffffffffff16815260200194505050505060405180910390f35b6103bc610898565b6040518082815260200191505060405180910390f35b6103da61089e565b6040518082815260200191505060405180910390f35b6103f86108a4565b604051808381526020018281526020019250505060405180910390f35b61044b6004803603604081101561042b57600080fd5b810190808035906020019092919080359060200190929190505050610911565b005b806000540160008190555050565b60045481565b60056000815480929190600101919050555061047d8282610a24565b60405180608001604052806005548152602001838152602001828152602001600073ffffffffffffffffffffffffffffffffffffffff1681525060026000600554815260200190815260200160002060008201518160000155602082015181600101556040820151816002015560608201518160030160006101000a81548173ffffffffffffffffffffffffffffffffffffffff021916908373ffffffffffffffffffffffffffffffffffffffff160217905550905050808260005403036000819055506005547fa854a749979502a204992acac225fdcbf427947356505ac9c7126f6244f1434460405160405180910390a25050565b60026020528060005260406000206000915090508060000154908060010154908060020154908060030160009054906101000a900473ffffffffffffffffffffffffffffffffffffffff16905084565b60036020528060005260406000206000915090508060000154908060010154908060020154908060030154908060040160009054906101000a900473ffffffffffffffffffffffffffffffffffffffff16905085565b600660008154809291906001019190505550610637838383610abc565b6040518060a001604052806006548152602001848152602001838152602001828152602001600073ffffffffffffffffffffffffffffffffffffffff168152506003600060065481526020019081526020016000206000820151816000015560208201518160010155604082015181600201556060820151816003015560808201518160040160006101000a81548173ffffffffffffffffffffffffffffffffffffffff021916908373ffffffffffffffffffffffffffffffffffffffff1602179055509050508082846000540303036000819055506006547fa854a749979502a204992acac225fdcbf427947356505ac9c7126f6244f1434460405160405180910390a2505050565b600080600080905060008090506000600190505b60055481116107a1576002600082815260200190815260200160002060010154830192506002600082815260200190815260200160002060020154820191508080600101915050610755565b5081819350935050509091565b60055481565b60008060008060009050600080905060008090506000600190505b60065481116108365760036000828152602001908152602001600020600101548401935060036000828152602001908152602001600020600201548301925060036000828152602001908152602001600020600301548201915080806001019150506107cf565b50828282955095509550505050909192565b60016020528060005260406000206000915090508060000154908060010154908060020154908060030160009054906101000a900473ffffffffffffffffffffffffffffffffffffffff16905084565b60005481565b60065481565b600080600080905060008090506000600190505b60045481116109045760016000828152602001908152602001600020600101548301925060016000828152602001908152602001600020600201548201915080806001019150506108b8565b5081819350935050509091565b60046000815480929190600101919050555061092d8282610bce565b60405180608001604052806004548152602001838152602001828152602001600073ffffffffffffffffffffffffffffffffffffffff1681525060016000600454815260200190815260200160002060008201518160000155602082015181600101556040820151816002015560608201518160030160006101000a81548173ffffffffffffffffffffffffffffffffffffffff021916908373ffffffffffffffffffffffffffffffffffffffff160217905550905050808260005403036000819055506004547fa854a749979502a204992acac225fdcbf427947356505ac9c7126f6244f1434460405160405180910390a25050565b60008210158015610a36575060008110155b8015610a46575060005481830111155b610ab8576040517f08c379a00000000000000000000000000000000000000000000000000000000081526004018080602001828103825260188152602001807f76616c756520677261746572207468616e20616d6f756e74000000000000000081525060200191505060405180910390fd5b5050565b60008310158015610ace575060008210155b8015610adb575060008110155b610b4d576040517f08c379a000000000000000000000000000000000000000000000000000000000815260040180806020018281038252600f8152602001807f6e656761746976652076616c756573000000000000000000000000000000000081525060200191505060405180910390fd5b60005481838501011115610bc9576040517f08c379a00000000000000000000000000000000000000000000000000000000081526004018080602001828103825260188152602001807f76616c756520677261746572207468616e20616d6f756e74000000000000000081525060200191505060405180910390fd5b505050565b60008210158015610be0575060008110155b8015610bf0575060005481830111155b610c62576040517f08c379a00000000000000000000000000000000000000000000000000000000081526004018080602001828103825260188152602001807f76616c756520677261746572207468616e20616d6f756e74000000000000000081525060200191505060405180910390fd5b505056fea165627a7a72305820ef7e26cdde563692d48fc0794ea6772e745759c9df7046965bfb13ced8b073e10029",
  "source": "pragma solidity ^0.5.0;\n\ncontract Upstream {\n\n    event createdEvent (\n        uint indexed _code\n    );\n\n    struct Exploration {\n        uint code;\n        uint geology;\n        uint drilling;\n        address last_investment_owner;\n    }\n\n    struct Development {\n        uint code;\n        uint evaluation;\n        uint engineering;\n        address last_investment_owner;\n    }\n\n    struct Production {\n        uint code;\n        uint mobilization;\n        uint production;\n        uint monitoring;\n        address last_investment_owner;\n    }\n    // Read/write Upstream\n    uint public amount;\n    mapping(uint => Exploration) public explorations;\n    mapping(uint => Development) public developments;\n    mapping(uint => Production) public productions;\n    uint public explorationsCount;\n    uint public developmentsCount;\n    uint public productionsCount;\n\n    constructor () public {\n        addAmount(0);\n    }\n\n\tfunction addAmount (uint _amount) public {\n\t\tamount = amount + _amount;\n\t}\n\n    function spendInExploration ( uint _geology,\n                                uint _drilling) public {\n        explorationsCount ++;\n        validateSpendInExploration(_geology, _drilling);\n        explorations[explorationsCount] = Exploration(explorationsCount, _geology, _drilling, address(0));\n        amount = amount - _geology - _drilling;\n        emit createdEvent(explorationsCount);\n    }\n\n    function spendInDevelopment ( uint _evaluation,\n                                uint _engineering) public {\n        developmentsCount ++;\n        validateSpendInDevelopment(_evaluation, _engineering);\n        developments[developmentsCount] = Development(developmentsCount, _evaluation, _engineering, address(0));\n        amount = amount - _evaluation - _engineering;\n        emit createdEvent(developmentsCount);\n    }\n\n    function spendInProduction ( uint _mobilization,\n                                uint _production,\n                                uint _monitoring) public {\n        productionsCount ++;\n        validateSpendInProduction(_mobilization, _production, _monitoring);\n        productions[productionsCount] = Production(productionsCount, _mobilization, _production, _monitoring, address(0));\n        amount = amount - _mobilization - _production - _monitoring;\n        emit createdEvent(productionsCount);\n    }\n\n    function getDevelopmentSpent() public view returns(uint, uint) {\n        uint evaluation = 0;\n        uint engineering = 0;\n        for (uint i = 1; i <= developmentsCount; i++) {\n            evaluation = evaluation + developments[i].evaluation;\n            engineering = engineering + developments[i].engineering;\n        }\n        return (evaluation, engineering);\n    }\n\n    function getProductionSpent() public view returns(uint, uint, uint) {\n        uint mobilization = 0;\n        uint production = 0;\n        uint monitoring = 0;\n        for (uint i = 1; i <= productionsCount; i++) {\n            mobilization = mobilization + productions[i].mobilization;\n            production = production + productions[i].production;\n            monitoring = monitoring + productions[i].monitoring;\n        }\n        return (mobilization, production, monitoring);\n    }\n\n    function getExplorationSpent() public view returns(uint, uint) {\n        uint geology = 0;\n        uint drilling = 0;\n        for (uint i = 1; i <= explorationsCount; i++) {\n            geology = geology + explorations[i].geology;\n            drilling = drilling + explorations[i].drilling;\n        }\n        return (geology, drilling);\n    }\n\n    function validateSpendInExploration(uint _geology, uint _drilling) private {\n        require(_geology >= 0 && _drilling >= 0 && _geology + _drilling <= amount, 'value grater than amount');\n    }\n\n    function validateSpendInDevelopment(uint _evaluation, uint _engineering) private {\n        require(_evaluation >= 0 && _engineering >= 0 && _evaluation + _engineering <= amount, 'value grater than amount');\n    }\n\n    function validateSpendInProduction(uint _mobilization, uint _production, uint _monitoring) private {\n        require(_mobilization >= 0 && _production >= 0 && _monitoring >= 0, 'negative values');\n        require(_mobilization + _production + _monitoring <= amount, 'value grater than amount');\n    }\n}",
  "sourcePath": "/Users/douglasmandarino/Documents/PUC/Blockchain/TRAB_2/oleogas-blockchain/Upstream/contracts/Upstream.sol",
  "compiler": {
    "name": "solc",
    "version": "0.5.8+commit.23d335f2.Emscripten.clang"
  },
  "schemaVersion": "3.0.16",
  "updatedAt": "2019-12-06T05:36:25.393Z",
  "devdoc": {
    "methods": {}
  },
  "userdoc": {
    "methods": {}
  }
}