{
  "contractName": "Upstream",
  "abi": [
    {
      "constant": true,
      "inputs": [
        {
          "name": "",
          "type": "uint256"
        }
      ],
      "name": "developments",
      "outputs": [
        {
          "name": "code",
          "type": "uint256"
        },
        {
          "name": "evaluation",
          "type": "uint256"
        },
        {
          "name": "engineering",
          "type": "uint256"
        }
      ],
      "payable": false,
      "stateMutability": "view",
      "type": "function"
    },
    {
      "constant": true,
      "inputs": [
        {
          "name": "",
          "type": "uint256"
        }
      ],
      "name": "productions",
      "outputs": [
        {
          "name": "code",
          "type": "uint256"
        },
        {
          "name": "mobilization",
          "type": "uint256"
        },
        {
          "name": "production",
          "type": "uint256"
        },
        {
          "name": "monitoring",
          "type": "uint256"
        }
      ],
      "payable": false,
      "stateMutability": "view",
      "type": "function"
    },
    {
      "constant": true,
      "inputs": [],
      "name": "investmentCount",
      "outputs": [
        {
          "name": "",
          "type": "uint256"
        }
      ],
      "payable": false,
      "stateMutability": "view",
      "type": "function"
    },
    {
      "constant": true,
      "inputs": [
        {
          "name": "",
          "type": "uint256"
        }
      ],
      "name": "explorations",
      "outputs": [
        {
          "name": "code",
          "type": "uint256"
        },
        {
          "name": "geology",
          "type": "uint256"
        },
        {
          "name": "drilling",
          "type": "uint256"
        }
      ],
      "payable": false,
      "stateMutability": "view",
      "type": "function"
    },
    {
      "constant": true,
      "inputs": [],
      "name": "spendCount",
      "outputs": [
        {
          "name": "",
          "type": "uint256"
        }
      ],
      "payable": false,
      "stateMutability": "view",
      "type": "function"
    },
    {
      "constant": true,
      "inputs": [],
      "name": "amount",
      "outputs": [
        {
          "name": "value",
          "type": "uint256"
        },
        {
          "name": "last_investment_owner",
          "type": "address"
        }
      ],
      "payable": false,
      "stateMutability": "view",
      "type": "function"
    },
    {
      "constant": true,
      "inputs": [
        {
          "name": "",
          "type": "uint256"
        }
      ],
      "name": "codePosition",
      "outputs": [
        {
          "name": "",
          "type": "uint256"
        }
      ],
      "payable": false,
      "stateMutability": "view",
      "type": "function"
    },
    {
      "inputs": [],
      "payable": false,
      "stateMutability": "nonpayable",
      "type": "constructor"
    },
    {
      "anonymous": false,
      "inputs": [
        {
          "indexed": true,
          "name": "_code",
          "type": "uint256"
        }
      ],
      "name": "createdEvent",
      "type": "event"
    },
    {
      "constant": false,
      "inputs": [
        {
          "name": "_geology",
          "type": "uint256"
        },
        {
          "name": "_drilling",
          "type": "uint256"
        }
      ],
      "name": "spendInExploration",
      "outputs": [],
      "payable": false,
      "stateMutability": "nonpayable",
      "type": "function"
    },
    {
      "constant": false,
      "inputs": [
        {
          "name": "_evaluation",
          "type": "uint256"
        },
        {
          "name": "_engineering",
          "type": "uint256"
        }
      ],
      "name": "spendInDevelopment",
      "outputs": [],
      "payable": false,
      "stateMutability": "nonpayable",
      "type": "function"
    },
    {
      "constant": false,
      "inputs": [
        {
          "name": "_mobilization",
          "type": "uint256"
        },
        {
          "name": "_production",
          "type": "uint256"
        },
        {
          "name": "_monitoring",
          "type": "uint256"
        }
      ],
      "name": "spendInProduction",
      "outputs": [],
      "payable": false,
      "stateMutability": "nonpayable",
      "type": "function"
    }
  ],
  "bytecode": "0x608060405234801561001057600080fd5b506100256404a817c80061002a60201b60201c565b6100c0565b6007600081548092919060010191905055506040518060400160405280828152602001600073ffffffffffffffffffffffffffffffffffffffff16815250600080820151816000015560208201518160010160006101000a81548173ffffffffffffffffffffffffffffffffffffffff021916908373ffffffffffffffffffffffffffffffffffffffff16021790555090505050565b6109a1806100cf6000396000f3fe608060405234801561001057600080fd5b506004361061009e5760003560e01c80639560688611610066578063956068861461015e5780639d12d01514610190578063aa8c217c146101ae578063ab5f9e45146101cd578063c696a92d146101fd5761009e565b80630e7f8bac146100a357806313662679146100bf57806315292f53146100f1578063234049f314610124578063246b0e5c14610140575b600080fd5b6100bd60048036036100b891908101906106da565b610219565b005b6100d960048036036100d491908101906106b1565b6102cc565b6040516100e893929190610887565b60405180910390f35b61010b600480360361010691908101906106b1565b6102f6565b60405161011b94939291906108be565b60405180910390f35b61013e60048036036101399190810190610716565b610326565b005b6101486103ed565b6040516101559190610843565b60405180910390f35b610178600480360361017391908101906106b1565b6103f3565b60405161018793929190610887565b60405180910390f35b61019861041d565b6040516101a59190610843565b60405180910390f35b6101b6610423565b6040516101c492919061085e565b60405180910390f35b6101e760048036036101e291908101906106b1565b610455565b6040516101f49190610843565b60405180910390f35b610217600480360361021291908101906106da565b61046d565b005b6006600081548092919060010191905055506102358282610520565b604051806060016040528060065481526020018381526020018281525060036000600654815260200190815260200160002060008201518160000155602082015181600101556040820151816002015590505080826000800154030360008001819055506006547fa854a749979502a204992acac225fdcbf427947356505ac9c7126f6244f1434460405160405180910390a25050565b60036020528060005260406000206000915090508060000154908060010154908060020154905083565b60046020528060005260406000206000915090508060000154908060010154908060020154908060030154905084565b600660008154809291906001019190505550610343838383610587565b604051806080016040528060065481526020018481526020018381526020018281525060046000600654815260200190815260200160002060008201518160000155602082015181600101556040820151816002015560608201518160030155905050808284600080015403030360008001819055506006547fa854a749979502a204992acac225fdcbf427947356505ac9c7126f6244f1434460405160405180910390a2505050565b60075481565b60026020528060005260406000206000915090508060000154908060010154908060020154905083565b60065481565b60008060000154908060010160009054906101000a900473ffffffffffffffffffffffffffffffffffffffff16905082565b60056020528060005260406000206000915090505481565b6006600081548092919060010191905055506104898282610635565b604051806060016040528060065481526020018381526020018281525060026000600654815260200190815260200160002060008201518160000155602082015181600101556040820151816002015590505080826000800154030360008001819055506006547fa854a749979502a204992acac225fdcbf427947356505ac9c7126f6244f1434460405160405180910390a25050565b60008210158015610532575060008110155b80156105445750600080015481830111155b610583576040517f08c379a000000000000000000000000000000000000000000000000000000000815260040161057a90610803565b60405180910390fd5b5050565b60008310158015610599575060008210155b80156105a6575060008110155b6105e5576040517f08c379a00000000000000000000000000000000000000000000000000000000081526004016105dc90610823565b60405180910390fd5b600080015481838501011115610630576040517f08c379a000000000000000000000000000000000000000000000000000000000815260040161062790610803565b60405180910390fd5b505050565b60008210158015610647575060008110155b80156106595750600080015481830111155b610698576040517f08c379a000000000000000000000000000000000000000000000000000000000815260040161068f90610803565b60405180910390fd5b5050565b6000813590506106ab81610950565b92915050565b6000602082840312156106c357600080fd5b60006106d18482850161069c565b91505092915050565b600080604083850312156106ed57600080fd5b60006106fb8582860161069c565b925050602061070c8582860161069c565b9150509250929050565b60008060006060848603121561072b57600080fd5b60006107398682870161069c565b935050602061074a8682870161069c565b925050604061075b8682870161069c565b9150509250925092565b61076e81610914565b82525050565b6000610781601883610903565b91507f76616c756520677261746572207468616e20616d6f756e7400000000000000006000830152602082019050919050565b60006107c1600f83610903565b91507f6e656761746976652076616c75657300000000000000000000000000000000006000830152602082019050919050565b6107fd81610946565b82525050565b6000602082019050818103600083015261081c81610774565b9050919050565b6000602082019050818103600083015261083c816107b4565b9050919050565b600060208201905061085860008301846107f4565b92915050565b600060408201905061087360008301856107f4565b6108806020830184610765565b9392505050565b600060608201905061089c60008301866107f4565b6108a960208301856107f4565b6108b660408301846107f4565b949350505050565b60006080820190506108d360008301876107f4565b6108e060208301866107f4565b6108ed60408301856107f4565b6108fa60608301846107f4565b95945050505050565b600082825260208201905092915050565b600061091f82610926565b9050919050565b600073ffffffffffffffffffffffffffffffffffffffff82169050919050565b6000819050919050565b61095981610946565b811461096457600080fd5b5056fea265627a7a72305820567eb7904a0cdd1c903c236f22d3f467bc79f6b1384ab8687df95d5bd27728426c6578706572696d656e74616cf50037",
  "source": "pragma solidity 0.5.8;\npragma experimental ABIEncoderV2;\n\ncontract Upstream {\n\n    event createdEvent (\n        uint indexed _code\n    );\n\n    struct Amount {\n        uint value;\n        address last_investment_owner;\n    }\n\n    struct Exploration {\n        uint code;\n        uint geology;\n        uint drilling;\n    }\n\n    struct Development {\n        uint code;\n        uint evaluation;\n        uint engineering;\n    }\n\n    struct Production {\n        uint code;\n        uint mobilization;\n        uint production;\n        uint monitoring;\n    }\n    // Read/write Upstream\n    Amount public amount;\n    mapping(uint => Exploration) public explorations;\n    mapping(uint => Development) public developments;\n    mapping(uint => Production) public productions;\n    mapping(uint => uint) public codePosition;\n    uint public spendCount;\n    uint public investmentCount;\n\n    constructor () public {\n\t\taddAmount(20000000000);\n\t}\n\n\tfunction addAmount (uint _amount) private {\n\t\tinvestmentCount ++;\n\t\tamount = Amount(_amount, address(0));\n\t}\n\n    function spendInExploration ( uint _geology,\n                                uint _drilling) public {\n        spendCount ++;\n        validateSpendInExploration(_geology, _drilling);\n        explorations[spendCount] = Exploration(spendCount, _geology, _drilling);\n        amount.value = amount.value - _geology - _drilling;\n        emit createdEvent(spendCount);\n    }\n\n    function spendInDevelopment ( uint _evaluation,\n                                uint _engineering) public {\n        spendCount ++;\n        validateSpendInDevelopment(_evaluation, _engineering);\n        developments[spendCount] = Development(spendCount, _evaluation, _engineering);\n        amount.value = amount.value - _evaluation - _engineering;\n        emit createdEvent(spendCount);\n    }\n\n    function spendInProduction ( uint _mobilization,\n                                uint _production,\n                                uint _monitoring) public {\n        spendCount ++;\n        validateSpendInProduction(_mobilization, _production, _monitoring);\n        productions[spendCount] = Production(spendCount, _mobilization, _production, _monitoring);\n        amount.value = amount.value - _mobilization - _production - _monitoring;\n        emit createdEvent(spendCount);\n    }\n\n    function validateSpendInExploration(uint _geology, uint _drilling) private {\n        require(_geology >= 0 && _drilling >= 0 && _geology + _drilling <= amount.value, 'value grater than amount');\n    }\n\n    function validateSpendInDevelopment(uint _evaluation, uint _engineering) private {\n        require(_evaluation >= 0 && _engineering >= 0 && _evaluation + _engineering <= amount.value, 'value grater than amount');\n    }\n\n    function validateSpendInProduction(uint _mobilization, uint _production, uint _monitoring) private {\n        require(_mobilization >= 0 && _production >= 0 && _monitoring >= 0, 'negative values');\n        require(_mobilization + _production + _monitoring <= amount.value, 'value grater than amount');\n    }\n}",
  "sourcePath": "/Users/douglasmandarino/Documents/PUC/Blockchain/TRAB_2/oleogas-blockchain/Upstream/contracts/Upstream.sol",
  "compiler": {
    "name": "solc",
    "version": "0.5.8+commit.23d335f2.Emscripten.clang"
  },
  "schemaVersion": "3.0.16",
  "updatedAt": "2019-12-01T02:47:20.244Z",
  "devdoc": {
    "methods": {}
  },
  "userdoc": {
    "methods": {}
  }
}