{
  "contractName": "Upstream",
  "abi": [
    {
      "constant": true,
      "inputs": [],
      "name": "explorationsCount",
      "outputs": [
        {
          "name": "",
          "type": "uint256"
        }
      ],
      "payable": false,
      "stateMutability": "view",
      "type": "function"
    },
    {
      "constant": true,
      "inputs": [
        {
          "name": "",
          "type": "uint256"
        }
      ],
      "name": "developments",
      "outputs": [
        {
          "name": "code",
          "type": "uint256"
        },
        {
          "name": "evaluation",
          "type": "uint256"
        },
        {
          "name": "engineering",
          "type": "uint256"
        },
        {
          "name": "last_investment_owner",
          "type": "address"
        }
      ],
      "payable": false,
      "stateMutability": "view",
      "type": "function"
    },
    {
      "constant": true,
      "inputs": [
        {
          "name": "",
          "type": "uint256"
        }
      ],
      "name": "productions",
      "outputs": [
        {
          "name": "code",
          "type": "uint256"
        },
        {
          "name": "mobilization",
          "type": "uint256"
        },
        {
          "name": "production",
          "type": "uint256"
        },
        {
          "name": "monitoring",
          "type": "uint256"
        },
        {
          "name": "last_investment_owner",
          "type": "address"
        }
      ],
      "payable": false,
      "stateMutability": "view",
      "type": "function"
    },
    {
      "constant": true,
      "inputs": [],
      "name": "totalAmount",
      "outputs": [
        {
          "name": "",
          "type": "uint256"
        }
      ],
      "payable": false,
      "stateMutability": "view",
      "type": "function"
    },
    {
      "constant": true,
      "inputs": [],
      "name": "developmentsCount",
      "outputs": [
        {
          "name": "",
          "type": "uint256"
        }
      ],
      "payable": false,
      "stateMutability": "view",
      "type": "function"
    },
    {
      "constant": true,
      "inputs": [
        {
          "name": "",
          "type": "uint256"
        }
      ],
      "name": "explorations",
      "outputs": [
        {
          "name": "code",
          "type": "uint256"
        },
        {
          "name": "geology",
          "type": "uint256"
        },
        {
          "name": "drilling",
          "type": "uint256"
        },
        {
          "name": "last_investment_owner",
          "type": "address"
        }
      ],
      "payable": false,
      "stateMutability": "view",
      "type": "function"
    },
    {
      "constant": true,
      "inputs": [],
      "name": "amount",
      "outputs": [
        {
          "name": "",
          "type": "uint256"
        }
      ],
      "payable": false,
      "stateMutability": "view",
      "type": "function"
    },
    {
      "constant": true,
      "inputs": [],
      "name": "productionsCount",
      "outputs": [
        {
          "name": "",
          "type": "uint256"
        }
      ],
      "payable": false,
      "stateMutability": "view",
      "type": "function"
    },
    {
      "inputs": [],
      "payable": false,
      "stateMutability": "nonpayable",
      "type": "constructor"
    },
    {
      "anonymous": false,
      "inputs": [
        {
          "indexed": true,
          "name": "_code",
          "type": "uint256"
        }
      ],
      "name": "createdEvent",
      "type": "event"
    },
    {
      "constant": false,
      "inputs": [
        {
          "name": "_amount",
          "type": "uint256"
        }
      ],
      "name": "addAmount",
      "outputs": [],
      "payable": false,
      "stateMutability": "nonpayable",
      "type": "function"
    },
    {
      "constant": false,
      "inputs": [
        {
          "name": "_geology",
          "type": "uint256"
        },
        {
          "name": "_drilling",
          "type": "uint256"
        }
      ],
      "name": "spendInExploration",
      "outputs": [],
      "payable": false,
      "stateMutability": "nonpayable",
      "type": "function"
    },
    {
      "constant": false,
      "inputs": [
        {
          "name": "_evaluation",
          "type": "uint256"
        },
        {
          "name": "_engineering",
          "type": "uint256"
        }
      ],
      "name": "spendInDevelopment",
      "outputs": [],
      "payable": false,
      "stateMutability": "nonpayable",
      "type": "function"
    },
    {
      "constant": false,
      "inputs": [
        {
          "name": "_mobilization",
          "type": "uint256"
        },
        {
          "name": "_production",
          "type": "uint256"
        },
        {
          "name": "_monitoring",
          "type": "uint256"
        }
      ],
      "name": "spendInProduction",
      "outputs": [],
      "payable": false,
      "stateMutability": "nonpayable",
      "type": "function"
    },
    {
      "constant": true,
      "inputs": [],
      "name": "getDevelopmentSpent",
      "outputs": [
        {
          "name": "",
          "type": "uint256"
        },
        {
          "name": "",
          "type": "uint256"
        }
      ],
      "payable": false,
      "stateMutability": "view",
      "type": "function"
    },
    {
      "constant": true,
      "inputs": [],
      "name": "getProductionSpent",
      "outputs": [
        {
          "name": "",
          "type": "uint256"
        },
        {
          "name": "",
          "type": "uint256"
        },
        {
          "name": "",
          "type": "uint256"
        }
      ],
      "payable": false,
      "stateMutability": "view",
      "type": "function"
    },
    {
      "constant": true,
      "inputs": [],
      "name": "getExplorationSpent",
      "outputs": [
        {
          "name": "",
          "type": "uint256"
        },
        {
          "name": "",
          "type": "uint256"
        }
      ],
      "payable": false,
      "stateMutability": "view",
      "type": "function"
    }
  ],
  "bytecode": "0x608060405234801561001057600080fd5b50610021600061002660201b60201c565b610048565b8060008082825401925050819055508060016000828254019250508190555050565b610cf4806100576000396000f3fe608060405234801561001057600080fd5b50600436106100f55760003560e01c8063386b242b11610097578063aa8c217c11610066578063aa8c217c146103dd578063b31f75f0146103fb578063baa19e8314610419578063c696a92d1461043e576100f5565b8063386b242b146102eb578063819d13481461031057806388f3335b1461032e578063956068861461035a576100f5565b806313662679116100d3578063136626791461017e57806315292f53146102015780631a39d8ef1461028b578063234049f3146102a9576100f5565b80630912f232146100fa5780630df64cfa146101285780630e7f8bac14610146575b600080fd5b6101266004803603602081101561011057600080fd5b8101908080359060200190929190505050610476565b005b610130610498565b6040518082815260200191505060405180910390f35b61017c6004803603604081101561015c57600080fd5b81019080803590602001909291908035906020019092919050505061049e565b005b6101aa6004803603602081101561019457600080fd5b81019080803590602001909291905050506105b5565b604051808581526020018481526020018381526020018273ffffffffffffffffffffffffffffffffffffffff1673ffffffffffffffffffffffffffffffffffffffff16815260200194505050505060405180910390f35b61022d6004803603602081101561021757600080fd5b8101908080359060200190929190505050610605565b604051808681526020018581526020018481526020018381526020018273ffffffffffffffffffffffffffffffffffffffff1673ffffffffffffffffffffffffffffffffffffffff1681526020019550505050505060405180910390f35b61029361065b565b6040518082815260200191505060405180910390f35b6102e9600480360360608110156102bf57600080fd5b81019080803590602001909291908035906020019092919080359060200190929190505050610661565b005b6102f361079f565b604051808381526020018281526020019250505060405180910390f35b61031861080c565b6040518082815260200191505060405180910390f35b610336610812565b60405180848152602001838152602001828152602001935050505060405180910390f35b6103866004803603602081101561037057600080fd5b81019080803590602001909291905050506108a6565b604051808581526020018481526020018381526020018273ffffffffffffffffffffffffffffffffffffffff1673ffffffffffffffffffffffffffffffffffffffff16815260200194505050505060405180910390f35b6103e56108f6565b6040518082815260200191505060405180910390f35b6104036108fc565b6040518082815260200191505060405180910390f35b610421610902565b604051808381526020018281526020019250505060405180910390f35b6104746004803603604081101561045457600080fd5b81019080803590602001909291908035906020019092919050505061096f565b005b8060008082825401925050819055508060016000828254019250508190555050565b60055481565b6006600081548092919060010191905055506104ba8282610a86565b60405180608001604052806006548152602001838152602001828152602001600073ffffffffffffffffffffffffffffffffffffffff1681525060036000600654815260200190815260200160002060008201518160000155602082015181600101556040820151816002015560608201518160030160006101000a81548173ffffffffffffffffffffffffffffffffffffffff021916908373ffffffffffffffffffffffffffffffffffffffff16021790555090505080820160008082825403925050819055506006547fa854a749979502a204992acac225fdcbf427947356505ac9c7126f6244f1434460405160405180910390a25050565b60036020528060005260406000206000915090508060000154908060010154908060020154908060030160009054906101000a900473ffffffffffffffffffffffffffffffffffffffff16905084565b60046020528060005260406000206000915090508060000154908060010154908060020154908060030154908060040160009054906101000a900473ffffffffffffffffffffffffffffffffffffffff16905085565b60015481565b60076000815480929190600101919050555061067e838383610b1e565b6040518060a001604052806007548152602001848152602001838152602001828152602001600073ffffffffffffffffffffffffffffffffffffffff168152506004600060075481526020019081526020016000206000820151816000015560208201518160010155604082015181600201556060820151816003015560808201518160040160006101000a81548173ffffffffffffffffffffffffffffffffffffffff021916908373ffffffffffffffffffffffffffffffffffffffff16021790555090505080828401016000808282540392505081905550808284010160008082825401925050819055506007547fa854a749979502a204992acac225fdcbf427947356505ac9c7126f6244f1434460405160405180910390a2505050565b600080600080905060008090506000600190505b60065481116107ff5760036000828152602001908152602001600020600101548301925060036000828152602001908152602001600020600201548201915080806001019150506107b3565b5081819350935050509091565b60065481565b60008060008060009050600080905060008090506000600190505b600754811161089457600460008281526020019081526020016000206001015484019350600460008281526020019081526020016000206002015483019250600460008281526020019081526020016000206003015482019150808060010191505061082d565b50828282955095509550505050909192565b60026020528060005260406000206000915090508060000154908060010154908060020154908060030160009054906101000a900473ffffffffffffffffffffffffffffffffffffffff16905084565b60005481565b60075481565b600080600080905060008090506000600190505b6005548111610962576002600082815260200190815260200160002060010154830192506002600082815260200190815260200160002060020154820191508080600101915050610916565b5081819350935050509091565b60056000815480929190600101919050555061098b8282610c30565b60405180608001604052806005548152602001838152602001828152602001600073ffffffffffffffffffffffffffffffffffffffff1681525060026000600554815260200190815260200160002060008201518160000155602082015181600101556040820151816002015560608201518160030160006101000a81548173ffffffffffffffffffffffffffffffffffffffff021916908373ffffffffffffffffffffffffffffffffffffffff16021790555090505080820160008082825403925050819055506005547fa854a749979502a204992acac225fdcbf427947356505ac9c7126f6244f1434460405160405180910390a25050565b60008210158015610a98575060008110155b8015610aa8575060005481830111155b610b1a576040517f08c379a00000000000000000000000000000000000000000000000000000000081526004018080602001828103825260188152602001807f76616c756520677261746572207468616e20616d6f756e74000000000000000081525060200191505060405180910390fd5b5050565b60008310158015610b30575060008210155b8015610b3d575060008110155b610baf576040517f08c379a000000000000000000000000000000000000000000000000000000000815260040180806020018281038252600f8152602001807f6e656761746976652076616c756573000000000000000000000000000000000081525060200191505060405180910390fd5b60005481838501011115610c2b576040517f08c379a00000000000000000000000000000000000000000000000000000000081526004018080602001828103825260188152602001807f76616c756520677261746572207468616e20616d6f756e74000000000000000081525060200191505060405180910390fd5b505050565b60008210158015610c42575060008110155b8015610c52575060005481830111155b610cc4576040517f08c379a00000000000000000000000000000000000000000000000000000000081526004018080602001828103825260188152602001807f76616c756520677261746572207468616e20616d6f756e74000000000000000081525060200191505060405180910390fd5b505056fea165627a7a7230582023e16bf04a53fbedf7649ffc6b03aa2c0956f57a12e7086339a5b1674caf37020029",
  "source": "pragma solidity ^0.5.0;\r\n\r\ncontract Upstream {\r\n\r\n    event createdEvent (\r\n        uint indexed _code\r\n    );\r\n\r\n    struct Exploration {\r\n        uint code;\r\n        uint geology;\r\n        uint drilling;\r\n        address last_investment_owner;\r\n    }\r\n\r\n    struct Development {\r\n        uint code;\r\n        uint evaluation;\r\n        uint engineering;\r\n        address last_investment_owner;\r\n    }\r\n\r\n    struct Production {\r\n        uint code;\r\n        uint mobilization;\r\n        uint production;\r\n        uint monitoring;\r\n        address last_investment_owner;\r\n    }\r\n    // Read/write Upstream\r\n    uint public amount;\r\n    uint public totalAmount;\r\n    mapping(uint => Exploration) public explorations;\r\n    mapping(uint => Development) public developments;\r\n    mapping(uint => Production) public productions;\r\n    uint public explorationsCount;\r\n    uint public developmentsCount;\r\n    uint public productionsCount;\r\n\r\n    constructor () public {\r\n        addAmount(0);\r\n    }\r\n\r\n\tfunction addAmount (uint _amount) public {\r\n        amount += _amount;\r\n        totalAmount += _amount;\r\n\t}\r\n\r\n    function spendInExploration ( uint _geology,\r\n                                uint _drilling) public {\r\n        explorationsCount ++;\r\n        validateSpendInExploration(_geology, _drilling);\r\n        explorations[explorationsCount] = Exploration(explorationsCount, _geology, _drilling, address(0));\r\n        amount -= (_geology + _drilling);\r\n        emit createdEvent(explorationsCount);\r\n    }\r\n\r\n    function spendInDevelopment ( uint _evaluation,\r\n                                uint _engineering) public {\r\n        developmentsCount ++;\r\n        validateSpendInDevelopment(_evaluation, _engineering);\r\n        developments[developmentsCount] = Development(developmentsCount, _evaluation, _engineering, address(0));\r\n        amount -= (_evaluation + _engineering);\r\n        emit createdEvent(developmentsCount);\r\n    }\r\n\r\n    function spendInProduction ( uint _mobilization,\r\n                                uint _production,\r\n                                uint _monitoring) public {\r\n        productionsCount ++;\r\n        validateSpendInProduction(_mobilization, _production, _monitoring);\r\n        productions[productionsCount] = Production(productionsCount, _mobilization, _production, _monitoring, address(0));\r\n        amount -= (_mobilization + _production + _monitoring);\r\n        amount += (_mobilization + _production + _monitoring);\r\n        emit createdEvent(productionsCount);\r\n    }\r\n\r\n    function getDevelopmentSpent() public view returns(uint, uint) {\r\n        uint evaluation = 0;\r\n        uint engineering = 0;\r\n        for (uint i = 1; i <= developmentsCount; i++) {\r\n            evaluation = evaluation + developments[i].evaluation;\r\n            engineering = engineering + developments[i].engineering;\r\n        }\r\n        return (evaluation, engineering);\r\n    }\r\n\r\n    function getProductionSpent() public view returns(uint, uint, uint) {\r\n        uint mobilization = 0;\r\n        uint production = 0;\r\n        uint monitoring = 0;\r\n        for (uint i = 1; i <= productionsCount; i++) {\r\n            mobilization = mobilization + productions[i].mobilization;\r\n            production = production + productions[i].production;\r\n            monitoring = monitoring + productions[i].monitoring;\r\n        }\r\n        return (mobilization, production, monitoring);\r\n    }\r\n\r\n    function getExplorationSpent() public view returns(uint, uint) {\r\n        uint geology = 0;\r\n        uint drilling = 0;\r\n        for (uint i = 1; i <= explorationsCount; i++) {\r\n            geology = geology + explorations[i].geology;\r\n            drilling = drilling + explorations[i].drilling;\r\n        }\r\n        return (geology, drilling);\r\n    }\r\n\r\n    function validateSpendInExploration(uint _geology, uint _drilling) private {\r\n        require(_geology >= 0 && _drilling >= 0 && _geology + _drilling <= amount, 'value grater than amount');\r\n    }\r\n\r\n    function validateSpendInDevelopment(uint _evaluation, uint _engineering) private {\r\n        require(_evaluation >= 0 && _engineering >= 0 && _evaluation + _engineering <= amount, 'value grater than amount');\r\n    }\r\n\r\n    function validateSpendInProduction(uint _mobilization, uint _production, uint _monitoring) private {\r\n        require(_mobilization >= 0 && _production >= 0 && _monitoring >= 0, 'negative values');\r\n        require(_mobilization + _production + _monitoring <= amount, 'value grater than amount');\r\n    }\r\n}",
  "sourcePath": "C:/Users/steph/IdeaProjects/oleogas-blockchain/Upstream/contracts/Upstream.sol",
  "compiler": {
    "name": "solc",
    "version": "0.5.8+commit.23d335f2.Emscripten.clang"
  },
  "schemaVersion": "3.0.16",
  "updatedAt": "2019-12-06T08:34:35.121Z",
  "devdoc": {
    "methods": {}
  },
  "userdoc": {
    "methods": {}
  }
}