{
  "contractName": "Upstream",
  "abi": [
    {
      "constant": true,
      "inputs": [
        {
          "name": "",
          "type": "uint256"
        }
      ],
      "name": "developments",
      "outputs": [
        {
          "name": "code",
          "type": "uint256"
        },
        {
          "name": "evaluation",
          "type": "uint256"
        },
        {
          "name": "engineering",
          "type": "uint256"
        },
        {
          "name": "last_investment_owner",
          "type": "address"
        }
      ],
      "payable": false,
      "stateMutability": "view",
      "type": "function"
    },
    {
      "constant": true,
      "inputs": [
        {
          "name": "",
          "type": "uint256"
        }
      ],
      "name": "productions",
      "outputs": [
        {
          "name": "code",
          "type": "uint256"
        },
        {
          "name": "mobilization",
          "type": "uint256"
        },
        {
          "name": "production",
          "type": "uint256"
        },
        {
          "name": "monitoring",
          "type": "uint256"
        },
        {
          "name": "last_investment_owner",
          "type": "address"
        }
      ],
      "payable": false,
      "stateMutability": "view",
      "type": "function"
    },
    {
      "constant": true,
      "inputs": [],
      "name": "investmentCount",
      "outputs": [
        {
          "name": "",
          "type": "uint256"
        }
      ],
      "payable": false,
      "stateMutability": "view",
      "type": "function"
    },
    {
      "constant": true,
      "inputs": [
        {
          "name": "",
          "type": "uint256"
        }
      ],
      "name": "explorations",
      "outputs": [
        {
          "name": "code",
          "type": "uint256"
        },
        {
          "name": "geology",
          "type": "uint256"
        },
        {
          "name": "drilling",
          "type": "uint256"
        },
        {
          "name": "last_investment_owner",
          "type": "address"
        }
      ],
      "payable": false,
      "stateMutability": "view",
      "type": "function"
    },
    {
      "constant": true,
      "inputs": [],
      "name": "spendCount",
      "outputs": [
        {
          "name": "",
          "type": "uint256"
        }
      ],
      "payable": false,
      "stateMutability": "view",
      "type": "function"
    },
    {
      "constant": true,
      "inputs": [],
      "name": "amount",
      "outputs": [
        {
          "name": "value",
          "type": "uint256"
        },
        {
          "name": "last_investment_owner",
          "type": "address"
        }
      ],
      "payable": false,
      "stateMutability": "view",
      "type": "function"
    },
    {
      "constant": true,
      "inputs": [
        {
          "name": "",
          "type": "uint256"
        }
      ],
      "name": "codePosition",
      "outputs": [
        {
          "name": "",
          "type": "uint256"
        }
      ],
      "payable": false,
      "stateMutability": "view",
      "type": "function"
    },
    {
      "inputs": [],
      "payable": false,
      "stateMutability": "nonpayable",
      "type": "constructor"
    },
    {
      "anonymous": false,
      "inputs": [
        {
          "indexed": true,
          "name": "_code",
          "type": "uint256"
        }
      ],
      "name": "createdEvent",
      "type": "event"
    },
    {
      "constant": false,
      "inputs": [
        {
          "name": "_geology",
          "type": "uint256"
        },
        {
          "name": "_drilling",
          "type": "uint256"
        }
      ],
      "name": "spendInExploration",
      "outputs": [],
      "payable": false,
      "stateMutability": "nonpayable",
      "type": "function"
    },
    {
      "constant": false,
      "inputs": [
        {
          "name": "_evaluation",
          "type": "uint256"
        },
        {
          "name": "_engineering",
          "type": "uint256"
        }
      ],
      "name": "spendInDevelopment",
      "outputs": [],
      "payable": false,
      "stateMutability": "nonpayable",
      "type": "function"
    },
    {
      "constant": false,
      "inputs": [
        {
          "name": "_mobilization",
          "type": "uint256"
        },
        {
          "name": "_production",
          "type": "uint256"
        },
        {
          "name": "_monitoring",
          "type": "uint256"
        }
      ],
      "name": "spendInProduction",
      "outputs": [],
      "payable": false,
      "stateMutability": "nonpayable",
      "type": "function"
    }
  ],
  "bytecode": "0x608060405234801561001057600080fd5b506100256404a817c80061002a60201b60201c565b6100c0565b6007600081548092919060010191905055506040518060400160405280828152602001600073ffffffffffffffffffffffffffffffffffffffff16815250600080820151816000015560208201518160010160006101000a81548173ffffffffffffffffffffffffffffffffffffffff021916908373ffffffffffffffffffffffffffffffffffffffff16021790555090505050565b610b5e806100cf6000396000f3fe608060405234801561001057600080fd5b506004361061009e5760003560e01c8063956068861161006657806395606886146101605780639d12d01514610193578063aa8c217c146101b1578063ab5f9e45146101d0578063c696a92d146102005761009e565b80630e7f8bac146100a357806313662679146100bf57806315292f53146100f2578063234049f314610126578063246b0e5c14610142575b600080fd5b6100bd60048036036100b8919081019061087b565b61021c565b005b6100d960048036036100d49190810190610852565b610333565b6040516100e99493929190610a28565b60405180910390f35b61010c60048036036101079190810190610852565b610383565b60405161011d959493929190610a6d565b60405180910390f35b610140600480360361013b91908101906108b7565b6103d9565b005b61014a610504565b60405161015791906109e4565b60405180910390f35b61017a60048036036101759190810190610852565b61050a565b60405161018a9493929190610a28565b60405180910390f35b61019b61055a565b6040516101a891906109e4565b60405180910390f35b6101b9610560565b6040516101c79291906109ff565b60405180910390f35b6101ea60048036036101e59190810190610852565b610592565b6040516101f791906109e4565b60405180910390f35b61021a6004803603610215919081019061087b565b6105aa565b005b60066000815480929190600101919050555061023882826106c1565b60405180608001604052806006548152602001838152602001828152602001600073ffffffffffffffffffffffffffffffffffffffff1681525060036000600654815260200190815260200160002060008201518160000155602082015181600101556040820151816002015560608201518160030160006101000a81548173ffffffffffffffffffffffffffffffffffffffff021916908373ffffffffffffffffffffffffffffffffffffffff16021790555090505080826000800154030360008001819055506006547fa854a749979502a204992acac225fdcbf427947356505ac9c7126f6244f1434460405160405180910390a25050565b60036020528060005260406000206000915090508060000154908060010154908060020154908060030160009054906101000a900473ffffffffffffffffffffffffffffffffffffffff16905084565b60046020528060005260406000206000915090508060000154908060010154908060020154908060030154908060040160009054906101000a900473ffffffffffffffffffffffffffffffffffffffff16905085565b6006600081548092919060010191905055506103f6838383610728565b6040518060a001604052806006548152602001848152602001838152602001828152602001600073ffffffffffffffffffffffffffffffffffffffff168152506004600060065481526020019081526020016000206000820151816000015560208201518160010155604082015181600201556060820151816003015560808201518160040160006101000a81548173ffffffffffffffffffffffffffffffffffffffff021916908373ffffffffffffffffffffffffffffffffffffffff160217905550905050808284600080015403030360008001819055506006547fa854a749979502a204992acac225fdcbf427947356505ac9c7126f6244f1434460405160405180910390a2505050565b60075481565b60026020528060005260406000206000915090508060000154908060010154908060020154908060030160009054906101000a900473ffffffffffffffffffffffffffffffffffffffff16905084565b60065481565b60008060000154908060010160009054906101000a900473ffffffffffffffffffffffffffffffffffffffff16905082565b60056020528060005260406000206000915090505481565b6006600081548092919060010191905055506105c682826107d6565b60405180608001604052806006548152602001838152602001828152602001600073ffffffffffffffffffffffffffffffffffffffff1681525060026000600654815260200190815260200160002060008201518160000155602082015181600101556040820151816002015560608201518160030160006101000a81548173ffffffffffffffffffffffffffffffffffffffff021916908373ffffffffffffffffffffffffffffffffffffffff16021790555090505080826000800154030360008001819055506006547fa854a749979502a204992acac225fdcbf427947356505ac9c7126f6244f1434460405160405180910390a25050565b600082101580156106d3575060008110155b80156106e55750600080015481830111155b610724576040517f08c379a000000000000000000000000000000000000000000000000000000000815260040161071b906109a4565b60405180910390fd5b5050565b6000831015801561073a575060008210155b8015610747575060008110155b610786576040517f08c379a000000000000000000000000000000000000000000000000000000000815260040161077d906109c4565b60405180910390fd5b6000800154818385010111156107d1576040517f08c379a00000000000000000000000000000000000000000000000000000000081526004016107c8906109a4565b60405180910390fd5b505050565b600082101580156107e8575060008110155b80156107fa5750600080015481830111155b610839576040517f08c379a0000000000000000000000000000000000000000000000000000000008152600401610830906109a4565b60405180910390fd5b5050565b60008135905061084c81610b0d565b92915050565b60006020828403121561086457600080fd5b60006108728482850161083d565b91505092915050565b6000806040838503121561088e57600080fd5b600061089c8582860161083d565b92505060206108ad8582860161083d565b9150509250929050565b6000806000606084860312156108cc57600080fd5b60006108da8682870161083d565b93505060206108eb8682870161083d565b92505060406108fc8682870161083d565b9150509250925092565b61090f81610ad1565b82525050565b6000610922601883610ac0565b91507f76616c756520677261746572207468616e20616d6f756e7400000000000000006000830152602082019050919050565b6000610962600f83610ac0565b91507f6e656761746976652076616c75657300000000000000000000000000000000006000830152602082019050919050565b61099e81610b03565b82525050565b600060208201905081810360008301526109bd81610915565b9050919050565b600060208201905081810360008301526109dd81610955565b9050919050565b60006020820190506109f96000830184610995565b92915050565b6000604082019050610a146000830185610995565b610a216020830184610906565b9392505050565b6000608082019050610a3d6000830187610995565b610a4a6020830186610995565b610a576040830185610995565b610a646060830184610906565b95945050505050565b600060a082019050610a826000830188610995565b610a8f6020830187610995565b610a9c6040830186610995565b610aa96060830185610995565b610ab66080830184610906565b9695505050505050565b600082825260208201905092915050565b6000610adc82610ae3565b9050919050565b600073ffffffffffffffffffffffffffffffffffffffff82169050919050565b6000819050919050565b610b1681610b03565b8114610b2157600080fd5b5056fea265627a7a7230582046910e98384cb63b73cef28a5a2c1f41dc55baa1b3415a666a4064f83b91f0f86c6578706572696d656e74616cf50037",
  "source": "pragma solidity 0.5.8;\npragma experimental ABIEncoderV2;\n\ncontract Upstream {\n\n    event createdEvent (\n        uint indexed _code\n    );\n\n    struct Amount {\n        uint value;\n        address last_investment_owner;\n    }\n\n    struct Exploration {\n        uint code;\n        uint geology;\n        uint drilling;\n        address last_investment_owner;\n    }\n\n    struct Development {\n        uint code;\n        uint evaluation;\n        uint engineering;\n        address last_investment_owner;\n    }\n\n    struct Production {\n        uint code;\n        uint mobilization;\n        uint production;\n        uint monitoring;\n        address last_investment_owner;\n    }\n    // Read/write Upstream\n    Amount public amount;\n    mapping(uint => Exploration) public explorations;\n    mapping(uint => Development) public developments;\n    mapping(uint => Production) public productions;\n    mapping(uint => uint) public codePosition;\n    uint public spendCount;\n    uint public investmentCount;\n\n    constructor () public {\n\t\taddAmount(20000000000);\n\t}\n\n\tfunction addAmount (uint _amount) private {\n\t\tinvestmentCount ++;\n\t\tamount = Amount(_amount, address(0));\n\t}\n\n    function spendInExploration ( uint _geology,\n                                uint _drilling) public {\n        spendCount ++;\n        validateSpendInExploration(_geology, _drilling);\n        explorations[spendCount] = Exploration(spendCount, _geology, _drilling, address(0));\n        amount.value = amount.value - _geology - _drilling;\n        emit createdEvent(spendCount);\n    }\n\n    function spendInDevelopment ( uint _evaluation,\n                                uint _engineering) public {\n        spendCount ++;\n        validateSpendInDevelopment(_evaluation, _engineering);\n        developments[spendCount] = Development(spendCount, _evaluation, _engineering, address(0));\n        amount.value = amount.value - _evaluation - _engineering;\n        emit createdEvent(spendCount);\n    }\n\n    function spendInProduction ( uint _mobilization,\n                                uint _production,\n                                uint _monitoring) public {\n        spendCount ++;\n        validateSpendInProduction(_mobilization, _production, _monitoring);\n        productions[spendCount] = Production(spendCount, _mobilization, _production, _monitoring, address(0));\n        amount.value = amount.value - _mobilization - _production - _monitoring;\n        emit createdEvent(spendCount);\n    }\n\n    function validateSpendInExploration(uint _geology, uint _drilling) private {\n        require(_geology >= 0 && _drilling >= 0 && _geology + _drilling <= amount.value, 'value grater than amount');\n    }\n\n    function validateSpendInDevelopment(uint _evaluation, uint _engineering) private {\n        require(_evaluation >= 0 && _engineering >= 0 && _evaluation + _engineering <= amount.value, 'value grater than amount');\n    }\n\n    function validateSpendInProduction(uint _mobilization, uint _production, uint _monitoring) private {\n        require(_mobilization >= 0 && _production >= 0 && _monitoring >= 0, 'negative values');\n        require(_mobilization + _production + _monitoring <= amount.value, 'value grater than amount');\n    }\n}",
  "sourcePath": "/Users/douglasmandarino/Documents/PUC/Blockchain/TRAB_2/oleogas-blockchain/Upstream/contracts/Upstream.sol",
  "compiler": {
    "name": "solc",
    "version": "0.5.8+commit.23d335f2.Emscripten.clang"
  },
  "schemaVersion": "3.0.16",
  "updatedAt": "2019-12-06T00:37:05.016Z",
  "devdoc": {
    "methods": {}
  },
  "userdoc": {
    "methods": {}
  }
}