{
  "contractName": "Upstream",
  "abi": [
    {
      "constant": true,
      "inputs": [
        {
          "name": "",
          "type": "uint256"
        }
      ],
      "name": "developments",
      "outputs": [
        {
          "name": "code",
          "type": "uint256"
        },
        {
          "name": "evaluation",
          "type": "uint256"
        },
        {
          "name": "engineering",
          "type": "uint256"
        },
        {
          "name": "last_investment_owner",
          "type": "address"
        }
      ],
      "payable": false,
      "stateMutability": "view",
      "type": "function"
    },
    {
      "constant": true,
      "inputs": [
        {
          "name": "",
          "type": "uint256"
        }
      ],
      "name": "productions",
      "outputs": [
        {
          "name": "code",
          "type": "uint256"
        },
        {
          "name": "mobilization",
          "type": "uint256"
        },
        {
          "name": "production",
          "type": "uint256"
        },
        {
          "name": "monitoring",
          "type": "uint256"
        },
        {
          "name": "last_investment_owner",
          "type": "address"
        }
      ],
      "payable": false,
      "stateMutability": "view",
      "type": "function"
    },
    {
      "constant": true,
      "inputs": [],
      "name": "investmentCount",
      "outputs": [
        {
          "name": "",
          "type": "uint256"
        }
      ],
      "payable": false,
      "stateMutability": "view",
      "type": "function"
    },
    {
      "constant": true,
      "inputs": [
        {
          "name": "",
          "type": "uint256"
        }
      ],
      "name": "explorations",
      "outputs": [
        {
          "name": "code",
          "type": "uint256"
        },
        {
          "name": "geology",
          "type": "uint256"
        },
        {
          "name": "drilling",
          "type": "uint256"
        },
        {
          "name": "last_investment_owner",
          "type": "address"
        }
      ],
      "payable": false,
      "stateMutability": "view",
      "type": "function"
    },
    {
      "constant": true,
      "inputs": [],
      "name": "spendCount",
      "outputs": [
        {
          "name": "",
          "type": "uint256"
        }
      ],
      "payable": false,
      "stateMutability": "view",
      "type": "function"
    },
    {
      "constant": true,
      "inputs": [],
      "name": "amount",
      "outputs": [
        {
          "name": "value",
          "type": "uint256"
        },
        {
          "name": "last_investment_owner",
          "type": "address"
        }
      ],
      "payable": false,
      "stateMutability": "view",
      "type": "function"
    },
    {
      "constant": true,
      "inputs": [
        {
          "name": "",
          "type": "uint256"
        }
      ],
      "name": "codePosition",
      "outputs": [
        {
          "name": "",
          "type": "uint256"
        }
      ],
      "payable": false,
      "stateMutability": "view",
      "type": "function"
    },
    {
      "inputs": [],
      "payable": false,
      "stateMutability": "nonpayable",
      "type": "constructor"
    },
    {
      "anonymous": false,
      "inputs": [
        {
          "indexed": true,
          "name": "_code",
          "type": "uint256"
        }
      ],
      "name": "createdEvent",
      "type": "event"
    },
    {
      "constant": false,
      "inputs": [
        {
          "name": "_amount",
          "type": "uint256"
        }
      ],
      "name": "addAmount",
      "outputs": [],
      "payable": false,
      "stateMutability": "nonpayable",
      "type": "function"
    },
    {
      "constant": false,
      "inputs": [
        {
          "name": "_geology",
          "type": "uint256"
        },
        {
          "name": "_drilling",
          "type": "uint256"
        }
      ],
      "name": "spendInExploration",
      "outputs": [],
      "payable": false,
      "stateMutability": "nonpayable",
      "type": "function"
    },
    {
      "constant": false,
      "inputs": [
        {
          "name": "_evaluation",
          "type": "uint256"
        },
        {
          "name": "_engineering",
          "type": "uint256"
        }
      ],
      "name": "spendInDevelopment",
      "outputs": [],
      "payable": false,
      "stateMutability": "nonpayable",
      "type": "function"
    },
    {
      "constant": false,
      "inputs": [
        {
          "name": "_mobilization",
          "type": "uint256"
        },
        {
          "name": "_production",
          "type": "uint256"
        },
        {
          "name": "_monitoring",
          "type": "uint256"
        }
      ],
      "name": "spendInProduction",
      "outputs": [],
      "payable": false,
      "stateMutability": "nonpayable",
      "type": "function"
    }
  ],
  "bytecode": "0x608060405234801561001057600080fd5b50610c1b806100206000396000f3fe608060405234801561001057600080fd5b50600436106100a95760003560e01c8063246b0e5c11610071578063246b0e5c1461016957806395606886146101875780639d12d015146101ba578063aa8c217c146101d8578063ab5f9e45146101f7578063c696a92d14610227576100a9565b80630912f232146100ae5780630e7f8bac146100ca57806313662679146100e657806315292f5314610119578063234049f31461014d575b600080fd5b6100c860048036036100c3919081019061090f565b610243565b005b6100e460048036036100df9190810190610938565b6102d9565b005b61010060048036036100fb919081019061090f565b6103f0565b6040516101109493929190610ae5565b60405180910390f35b610133600480360361012e919081019061090f565b610440565b604051610144959493929190610b2a565b60405180910390f35b61016760048036036101629190810190610974565b610496565b005b6101716105c1565b60405161017e9190610aa1565b60405180910390f35b6101a1600480360361019c919081019061090f565b6105c7565b6040516101b19493929190610ae5565b60405180910390f35b6101c2610617565b6040516101cf9190610aa1565b60405180910390f35b6101e061061d565b6040516101ee929190610abc565b60405180910390f35b610211600480360361020c919081019061090f565b61064f565b60405161021e9190610aa1565b60405180910390f35b610241600480360361023c9190810190610938565b610667565b005b6007600081548092919060010191905055506040518060400160405280828152602001600073ffffffffffffffffffffffffffffffffffffffff16815250600080820151816000015560208201518160010160006101000a81548173ffffffffffffffffffffffffffffffffffffffff021916908373ffffffffffffffffffffffffffffffffffffffff16021790555090505050565b6006600081548092919060010191905055506102f5828261077e565b60405180608001604052806006548152602001838152602001828152602001600073ffffffffffffffffffffffffffffffffffffffff1681525060036000600654815260200190815260200160002060008201518160000155602082015181600101556040820151816002015560608201518160030160006101000a81548173ffffffffffffffffffffffffffffffffffffffff021916908373ffffffffffffffffffffffffffffffffffffffff16021790555090505080826000800154030360008001819055506006547fa854a749979502a204992acac225fdcbf427947356505ac9c7126f6244f1434460405160405180910390a25050565b60036020528060005260406000206000915090508060000154908060010154908060020154908060030160009054906101000a900473ffffffffffffffffffffffffffffffffffffffff16905084565b60046020528060005260406000206000915090508060000154908060010154908060020154908060030154908060040160009054906101000a900473ffffffffffffffffffffffffffffffffffffffff16905085565b6006600081548092919060010191905055506104b38383836107e5565b6040518060a001604052806006548152602001848152602001838152602001828152602001600073ffffffffffffffffffffffffffffffffffffffff168152506004600060065481526020019081526020016000206000820151816000015560208201518160010155604082015181600201556060820151816003015560808201518160040160006101000a81548173ffffffffffffffffffffffffffffffffffffffff021916908373ffffffffffffffffffffffffffffffffffffffff160217905550905050808284600080015403030360008001819055506006547fa854a749979502a204992acac225fdcbf427947356505ac9c7126f6244f1434460405160405180910390a2505050565b60075481565b60026020528060005260406000206000915090508060000154908060010154908060020154908060030160009054906101000a900473ffffffffffffffffffffffffffffffffffffffff16905084565b60065481565b60008060000154908060010160009054906101000a900473ffffffffffffffffffffffffffffffffffffffff16905082565b60056020528060005260406000206000915090505481565b6006600081548092919060010191905055506106838282610893565b60405180608001604052806006548152602001838152602001828152602001600073ffffffffffffffffffffffffffffffffffffffff1681525060026000600654815260200190815260200160002060008201518160000155602082015181600101556040820151816002015560608201518160030160006101000a81548173ffffffffffffffffffffffffffffffffffffffff021916908373ffffffffffffffffffffffffffffffffffffffff16021790555090505080826000800154030360008001819055506006547fa854a749979502a204992acac225fdcbf427947356505ac9c7126f6244f1434460405160405180910390a25050565b60008210158015610790575060008110155b80156107a25750600080015481830111155b6107e1576040517f08c379a00000000000000000000000000000000000000000000000000000000081526004016107d890610a61565b60405180910390fd5b5050565b600083101580156107f7575060008210155b8015610804575060008110155b610843576040517f08c379a000000000000000000000000000000000000000000000000000000000815260040161083a90610a81565b60405180910390fd5b60008001548183850101111561088e576040517f08c379a000000000000000000000000000000000000000000000000000000000815260040161088590610a61565b60405180910390fd5b505050565b600082101580156108a5575060008110155b80156108b75750600080015481830111155b6108f6576040517f08c379a00000000000000000000000000000000000000000000000000000000081526004016108ed90610a61565b60405180910390fd5b5050565b60008135905061090981610bca565b92915050565b60006020828403121561092157600080fd5b600061092f848285016108fa565b91505092915050565b6000806040838503121561094b57600080fd5b6000610959858286016108fa565b925050602061096a858286016108fa565b9150509250929050565b60008060006060848603121561098957600080fd5b6000610997868287016108fa565b93505060206109a8868287016108fa565b92505060406109b9868287016108fa565b9150509250925092565b6109cc81610b8e565b82525050565b60006109df601883610b7d565b91507f76616c756520677261746572207468616e20616d6f756e7400000000000000006000830152602082019050919050565b6000610a1f600f83610b7d565b91507f6e656761746976652076616c75657300000000000000000000000000000000006000830152602082019050919050565b610a5b81610bc0565b82525050565b60006020820190508181036000830152610a7a816109d2565b9050919050565b60006020820190508181036000830152610a9a81610a12565b9050919050565b6000602082019050610ab66000830184610a52565b92915050565b6000604082019050610ad16000830185610a52565b610ade60208301846109c3565b9392505050565b6000608082019050610afa6000830187610a52565b610b076020830186610a52565b610b146040830185610a52565b610b2160608301846109c3565b95945050505050565b600060a082019050610b3f6000830188610a52565b610b4c6020830187610a52565b610b596040830186610a52565b610b666060830185610a52565b610b7360808301846109c3565b9695505050505050565b600082825260208201905092915050565b6000610b9982610ba0565b9050919050565b600073ffffffffffffffffffffffffffffffffffffffff82169050919050565b6000819050919050565b610bd381610bc0565b8114610bde57600080fd5b5056fea265627a7a723058200e165757dd2049749f925e417beeed48e7c81bcb0e54b98293832d76a06642586c6578706572696d656e74616cf50037",
  "source": "pragma solidity 0.5.8;\r\npragma experimental ABIEncoderV2;\r\n\r\ncontract Upstream {\r\n\r\n    event createdEvent (\r\n        uint indexed _code\r\n    );\r\n\r\n    struct Amount {\r\n        uint value;\r\n        address last_investment_owner;\r\n    }\r\n\r\n    struct Exploration {\r\n        uint code;\r\n        uint geology;\r\n        uint drilling;\r\n        address last_investment_owner;\r\n    }\r\n\r\n    struct Development {\r\n        uint code;\r\n        uint evaluation;\r\n        uint engineering;\r\n        address last_investment_owner;\r\n    }\r\n\r\n    struct Production {\r\n        uint code;\r\n        uint mobilization;\r\n        uint production;\r\n        uint monitoring;\r\n        address last_investment_owner;\r\n    }\r\n    // Read/write Upstream\r\n    Amount public amount;\r\n    mapping(uint => Exploration) public explorations;\r\n    mapping(uint => Development) public developments;\r\n    mapping(uint => Production) public productions;\r\n    mapping(uint => uint) public codePosition;\r\n    uint public spendCount;\r\n    uint public investmentCount;\r\n\r\n    constructor () public {}\r\n\r\n\tfunction addAmount (uint _amount) public {\r\n\t\tinvestmentCount ++;\r\n\t\tamount = Amount(_amount, address(0));\r\n\t}\r\n\r\n    function spendInExploration ( uint _geology,\r\n                                uint _drilling) public {\r\n        spendCount ++;\r\n        validateSpendInExploration(_geology, _drilling);\r\n        explorations[spendCount] = Exploration(spendCount, _geology, _drilling, address(0));\r\n        amount.value = amount.value - _geology - _drilling;\r\n        emit createdEvent(spendCount);\r\n    }\r\n\r\n    function spendInDevelopment ( uint _evaluation,\r\n                                uint _engineering) public {\r\n        spendCount ++;\r\n        validateSpendInDevelopment(_evaluation, _engineering);\r\n        developments[spendCount] = Development(spendCount, _evaluation, _engineering, address(0));\r\n        amount.value = amount.value - _evaluation - _engineering;\r\n        emit createdEvent(spendCount);\r\n    }\r\n\r\n    function spendInProduction ( uint _mobilization,\r\n                                uint _production,\r\n                                uint _monitoring) public {\r\n        spendCount ++;\r\n        validateSpendInProduction(_mobilization, _production, _monitoring);\r\n        productions[spendCount] = Production(spendCount, _mobilization, _production, _monitoring, address(0));\r\n        amount.value = amount.value - _mobilization - _production - _monitoring;\r\n        emit createdEvent(spendCount);\r\n    }\r\n\r\n    function validateSpendInExploration(uint _geology, uint _drilling) private {\r\n        require(_geology >= 0 && _drilling >= 0 && _geology + _drilling <= amount.value, 'value grater than amount');\r\n    }\r\n\r\n    function validateSpendInDevelopment(uint _evaluation, uint _engineering) private {\r\n        require(_evaluation >= 0 && _engineering >= 0 && _evaluation + _engineering <= amount.value, 'value grater than amount');\r\n    }\r\n\r\n    function validateSpendInProduction(uint _mobilization, uint _production, uint _monitoring) private {\r\n        require(_mobilization >= 0 && _production >= 0 && _monitoring >= 0, 'negative values');\r\n        require(_mobilization + _production + _monitoring <= amount.value, 'value grater than amount');\r\n    }\r\n}",
  "sourcePath": "C:/Users/steph/IdeaProjects/oleogas-blockchain/Upstream/contracts/Upstream.sol",
  "compiler": {
    "name": "solc",
    "version": "0.5.8+commit.23d335f2.Emscripten.clang"
  },
  "schemaVersion": "3.0.16",
  "updatedAt": "2019-12-06T02:02:12.360Z",
  "devdoc": {
    "methods": {}
  },
  "userdoc": {
    "methods": {}
  }
}