{
  "contractName": "Upstream",
  "abi": [
    {
      "constant": true,
      "inputs": [
        {
          "name": "",
          "type": "uint256"
        }
      ],
      "name": "developments",
      "outputs": [
        {
          "name": "code",
          "type": "uint256"
        },
        {
          "name": "evaluation",
          "type": "uint256"
        },
        {
          "name": "engineering",
          "type": "uint256"
        },
        {
          "name": "last_investment_owner",
          "type": "address"
        }
      ],
      "payable": false,
      "stateMutability": "view",
      "type": "function"
    },
    {
      "constant": true,
      "inputs": [
        {
          "name": "",
          "type": "uint256"
        }
      ],
      "name": "productions",
      "outputs": [
        {
          "name": "code",
          "type": "uint256"
        },
        {
          "name": "mobilization",
          "type": "uint256"
        },
        {
          "name": "production",
          "type": "uint256"
        },
        {
          "name": "monitoring",
          "type": "uint256"
        },
        {
          "name": "last_investment_owner",
          "type": "address"
        }
      ],
      "payable": false,
      "stateMutability": "view",
      "type": "function"
    },
    {
      "constant": true,
      "inputs": [],
      "name": "investmentCount",
      "outputs": [
        {
          "name": "",
          "type": "uint256"
        }
      ],
      "payable": false,
      "stateMutability": "view",
      "type": "function"
    },
    {
      "constant": true,
      "inputs": [
        {
          "name": "",
          "type": "uint256"
        }
      ],
      "name": "explorations",
      "outputs": [
        {
          "name": "code",
          "type": "uint256"
        },
        {
          "name": "geology",
          "type": "uint256"
        },
        {
          "name": "drilling",
          "type": "uint256"
        },
        {
          "name": "last_investment_owner",
          "type": "address"
        }
      ],
      "payable": false,
      "stateMutability": "view",
      "type": "function"
    },
    {
      "constant": true,
      "inputs": [],
      "name": "spendCount",
      "outputs": [
        {
          "name": "",
          "type": "uint256"
        }
      ],
      "payable": false,
      "stateMutability": "view",
      "type": "function"
    },
    {
      "constant": true,
      "inputs": [],
      "name": "amount",
      "outputs": [
        {
          "name": "",
          "type": "uint256"
        }
      ],
      "payable": false,
      "stateMutability": "view",
      "type": "function"
    },
    {
      "constant": true,
      "inputs": [
        {
          "name": "",
          "type": "uint256"
        }
      ],
      "name": "codePosition",
      "outputs": [
        {
          "name": "",
          "type": "uint256"
        }
      ],
      "payable": false,
      "stateMutability": "view",
      "type": "function"
    },
    {
      "inputs": [],
      "payable": false,
      "stateMutability": "nonpayable",
      "type": "constructor"
    },
    {
      "anonymous": false,
      "inputs": [
        {
          "indexed": true,
          "name": "_code",
          "type": "uint256"
        }
      ],
      "name": "createdEvent",
      "type": "event"
    },
    {
      "constant": false,
      "inputs": [
        {
          "name": "_amount",
          "type": "uint256"
        }
      ],
      "name": "addAmount",
      "outputs": [],
      "payable": false,
      "stateMutability": "nonpayable",
      "type": "function"
    },
    {
      "constant": false,
      "inputs": [
        {
          "name": "_geology",
          "type": "uint256"
        },
        {
          "name": "_drilling",
          "type": "uint256"
        }
      ],
      "name": "spendInExploration",
      "outputs": [],
      "payable": false,
      "stateMutability": "nonpayable",
      "type": "function"
    },
    {
      "constant": false,
      "inputs": [
        {
          "name": "_evaluation",
          "type": "uint256"
        },
        {
          "name": "_engineering",
          "type": "uint256"
        }
      ],
      "name": "spendInDevelopment",
      "outputs": [],
      "payable": false,
      "stateMutability": "nonpayable",
      "type": "function"
    },
    {
      "constant": false,
      "inputs": [
        {
          "name": "_mobilization",
          "type": "uint256"
        },
        {
          "name": "_production",
          "type": "uint256"
        },
        {
          "name": "_monitoring",
          "type": "uint256"
        }
      ],
      "name": "spendInProduction",
      "outputs": [],
      "payable": false,
      "stateMutability": "nonpayable",
      "type": "function"
    }
  ],
  "bytecode": "0x608060405234801561001057600080fd5b50610021600061002660201b60201c565b610046565b600660008154809291906001019190505550806000540160008190555050565b610b3d806100556000396000f3fe608060405234801561001057600080fd5b50600436106100a95760003560e01c8063246b0e5c11610071578063246b0e5c1461016957806395606886146101875780639d12d015146101ba578063aa8c217c146101d8578063ab5f9e45146101f6578063c696a92d14610226576100a9565b80630912f232146100ae5780630e7f8bac146100ca57806313662679146100e657806315292f5314610119578063234049f31461014d575b600080fd5b6100c860048036036100c3919081019061085a565b610242565b005b6100e460048036036100df9190810190610883565b610262565b005b61010060048036036100fb919081019061085a565b610375565b6040516101109493929190610a07565b60405180910390f35b610133600480360361012e919081019061085a565b6103c5565b604051610144959493929190610a4c565b60405180910390f35b610167600480360361016291908101906108bf565b61041b565b005b610171610542565b60405161017e91906109ec565b60405180910390f35b6101a1600480360361019c919081019061085a565b610548565b6040516101b19493929190610a07565b60405180910390f35b6101c2610598565b6040516101cf91906109ec565b60405180910390f35b6101e061059e565b6040516101ed91906109ec565b60405180910390f35b610210600480360361020b919081019061085a565b6105a4565b60405161021d91906109ec565b60405180910390f35b610240600480360361023b9190810190610883565b6105bc565b005b600660008154809291906001019190505550806000540160008190555050565b60056000815480929190600101919050555061027e82826106cf565b60405180608001604052806005548152602001838152602001828152602001600073ffffffffffffffffffffffffffffffffffffffff1681525060026000600554815260200190815260200160002060008201518160000155602082015181600101556040820151816002015560608201518160030160006101000a81548173ffffffffffffffffffffffffffffffffffffffff021916908373ffffffffffffffffffffffffffffffffffffffff160217905550905050808260005403036000819055506005547fa854a749979502a204992acac225fdcbf427947356505ac9c7126f6244f1434460405160405180910390a25050565b60026020528060005260406000206000915090508060000154908060010154908060020154908060030160009054906101000a900473ffffffffffffffffffffffffffffffffffffffff16905084565b60036020528060005260406000206000915090508060000154908060010154908060020154908060030154908060040160009054906101000a900473ffffffffffffffffffffffffffffffffffffffff16905085565b600560008154809291906001019190505550610438838383610734565b6040518060a001604052806005548152602001848152602001838152602001828152602001600073ffffffffffffffffffffffffffffffffffffffff168152506003600060055481526020019081526020016000206000820151816000015560208201518160010155604082015181600201556060820151816003015560808201518160040160006101000a81548173ffffffffffffffffffffffffffffffffffffffff021916908373ffffffffffffffffffffffffffffffffffffffff1602179055509050508082846000540303036000819055506005547fa854a749979502a204992acac225fdcbf427947356505ac9c7126f6244f1434460405160405180910390a2505050565b60065481565b60016020528060005260406000206000915090508060000154908060010154908060020154908060030160009054906101000a900473ffffffffffffffffffffffffffffffffffffffff16905084565b60055481565b60005481565b60046020528060005260406000206000915090505481565b6005600081548092919060010191905055506105d882826107e0565b60405180608001604052806005548152602001838152602001828152602001600073ffffffffffffffffffffffffffffffffffffffff1681525060016000600554815260200190815260200160002060008201518160000155602082015181600101556040820151816002015560608201518160030160006101000a81548173ffffffffffffffffffffffffffffffffffffffff021916908373ffffffffffffffffffffffffffffffffffffffff160217905550905050808260005403036000819055506005547fa854a749979502a204992acac225fdcbf427947356505ac9c7126f6244f1434460405160405180910390a25050565b600082101580156106e1575060008110155b80156106f1575060005481830111155b610730576040517f08c379a0000000000000000000000000000000000000000000000000000000008152600401610727906109ac565b60405180910390fd5b5050565b60008310158015610746575060008210155b8015610753575060008110155b610792576040517f08c379a0000000000000000000000000000000000000000000000000000000008152600401610789906109cc565b60405180910390fd5b600054818385010111156107db576040517f08c379a00000000000000000000000000000000000000000000000000000000081526004016107d2906109ac565b60405180910390fd5b505050565b600082101580156107f2575060008110155b8015610802575060005481830111155b610841576040517f08c379a0000000000000000000000000000000000000000000000000000000008152600401610838906109ac565b60405180910390fd5b5050565b60008135905061085481610aec565b92915050565b60006020828403121561086c57600080fd5b600061087a84828501610845565b91505092915050565b6000806040838503121561089657600080fd5b60006108a485828601610845565b92505060206108b585828601610845565b9150509250929050565b6000806000606084860312156108d457600080fd5b60006108e286828701610845565b93505060206108f386828701610845565b925050604061090486828701610845565b9150509250925092565b61091781610ab0565b82525050565b600061092a601883610a9f565b91507f76616c756520677261746572207468616e20616d6f756e7400000000000000006000830152602082019050919050565b600061096a600f83610a9f565b91507f6e656761746976652076616c75657300000000000000000000000000000000006000830152602082019050919050565b6109a681610ae2565b82525050565b600060208201905081810360008301526109c58161091d565b9050919050565b600060208201905081810360008301526109e58161095d565b9050919050565b6000602082019050610a01600083018461099d565b92915050565b6000608082019050610a1c600083018761099d565b610a29602083018661099d565b610a36604083018561099d565b610a43606083018461090e565b95945050505050565b600060a082019050610a61600083018861099d565b610a6e602083018761099d565b610a7b604083018661099d565b610a88606083018561099d565b610a95608083018461090e565b9695505050505050565b600082825260208201905092915050565b6000610abb82610ac2565b9050919050565b600073ffffffffffffffffffffffffffffffffffffffff82169050919050565b6000819050919050565b610af581610ae2565b8114610b0057600080fd5b5056fea265627a7a723058207041695f9591be82fc0add50aa63b1eec6e1964c98fd3893411e09146ba70cc16c6578706572696d656e74616cf50037",
  "source": "pragma solidity ^0.5.0;\npragma experimental ABIEncoderV2;\n\ncontract Upstream {\n\n    event createdEvent (\n        uint indexed _code\n    );\n\n    struct Amount {\n        uint value;\n        address last_investment_owner;\n    }\n\n    struct Exploration {\n        uint code;\n        uint geology;\n        uint drilling;\n        address last_investment_owner;\n    }\n\n    struct Development {\n        uint code;\n        uint evaluation;\n        uint engineering;\n        address last_investment_owner;\n    }\n\n    struct Production {\n        uint code;\n        uint mobilization;\n        uint production;\n        uint monitoring;\n        address last_investment_owner;\n    }\n    // Read/write Upstream\n    uint public amount;\n    mapping(uint => Exploration) public explorations;\n    mapping(uint => Development) public developments;\n    mapping(uint => Production) public productions;\n    mapping(uint => uint) public codePosition;\n    uint public spendCount;\n    uint public investmentCount;\n\n    constructor () public {\n        addAmount(0);\n    }\n\n\tfunction addAmount (uint _amount) public {\n\t\tinvestmentCount ++;\n\t\tamount = amount + _amount;\n\t}\n\n    function spendInExploration ( uint _geology,\n                                uint _drilling) public {\n        spendCount ++;\n        validateSpendInExploration(_geology, _drilling);\n        explorations[spendCount] = Exploration(spendCount, _geology, _drilling, address(0));\n        amount = amount - _geology - _drilling;\n        emit createdEvent(spendCount);\n    }\n\n    function spendInDevelopment ( uint _evaluation,\n                                uint _engineering) public {\n        spendCount ++;\n        validateSpendInDevelopment(_evaluation, _engineering);\n        developments[spendCount] = Development(spendCount, _evaluation, _engineering, address(0));\n        amount = amount - _evaluation - _engineering;\n        emit createdEvent(spendCount);\n    }\n\n    function spendInProduction ( uint _mobilization,\n                                uint _production,\n                                uint _monitoring) public {\n        spendCount ++;\n        validateSpendInProduction(_mobilization, _production, _monitoring);\n        productions[spendCount] = Production(spendCount, _mobilization, _production, _monitoring, address(0));\n        amount = amount - _mobilization - _production - _monitoring;\n        emit createdEvent(spendCount);\n    }\n\n    function validateSpendInExploration(uint _geology, uint _drilling) private {\n        require(_geology >= 0 && _drilling >= 0 && _geology + _drilling <= amount, 'value grater than amount');\n    }\n\n    function validateSpendInDevelopment(uint _evaluation, uint _engineering) private {\n        require(_evaluation >= 0 && _engineering >= 0 && _evaluation + _engineering <= amount, 'value grater than amount');\n    }\n\n    function validateSpendInProduction(uint _mobilization, uint _production, uint _monitoring) private {\n        require(_mobilization >= 0 && _production >= 0 && _monitoring >= 0, 'negative values');\n        require(_mobilization + _production + _monitoring <= amount, 'value grater than amount');\n    }\n}",
  "sourcePath": "/Users/douglasmandarino/Documents/PUC/Blockchain/TRAB_2/oleogas-blockchain/Upstream/contracts/Upstream.sol",
  "compiler": {
    "name": "solc",
    "version": "0.5.8+commit.23d335f2.Emscripten.clang"
  },
  "schemaVersion": "3.0.16",
  "updatedAt": "2019-12-06T04:35:29.116Z",
  "devdoc": {
    "methods": {}
  },
  "userdoc": {
    "methods": {}
  }
}