{
  "contractName": "Upstream",
  "abi": [
    {
      "constant": true,
      "inputs": [
        {
          "name": "",
          "type": "uint256"
        }
      ],
      "name": "developments",
      "outputs": [
        {
          "name": "code",
          "type": "uint256"
        },
        {
          "name": "evaluation",
          "type": "uint256"
        },
        {
          "name": "engineering",
          "type": "uint256"
        }
      ],
      "payable": false,
      "stateMutability": "view",
      "type": "function"
    },
    {
      "constant": true,
      "inputs": [
        {
          "name": "",
          "type": "uint256"
        }
      ],
      "name": "productions",
      "outputs": [
        {
          "name": "code",
          "type": "uint256"
        },
        {
          "name": "mobilization",
          "type": "uint256"
        },
        {
          "name": "production",
          "type": "uint256"
        },
        {
          "name": "monitoring",
          "type": "uint256"
        }
      ],
      "payable": false,
      "stateMutability": "view",
      "type": "function"
    },
    {
      "constant": true,
      "inputs": [],
      "name": "investmentCount",
      "outputs": [
        {
          "name": "",
          "type": "uint256"
        }
      ],
      "payable": false,
      "stateMutability": "view",
      "type": "function"
    },
    {
      "constant": true,
      "inputs": [
        {
          "name": "",
          "type": "uint256"
        }
      ],
      "name": "explorations",
      "outputs": [
        {
          "name": "code",
          "type": "uint256"
        },
        {
          "name": "geology",
          "type": "uint256"
        },
        {
          "name": "drilling",
          "type": "uint256"
        }
      ],
      "payable": false,
      "stateMutability": "view",
      "type": "function"
    },
    {
      "constant": true,
      "inputs": [],
      "name": "spendCount",
      "outputs": [
        {
          "name": "",
          "type": "uint256"
        }
      ],
      "payable": false,
      "stateMutability": "view",
      "type": "function"
    },
    {
      "constant": true,
      "inputs": [],
      "name": "amount",
      "outputs": [
        {
          "name": "value",
          "type": "uint256"
        },
        {
          "name": "last_investment_owner",
          "type": "address"
        }
      ],
      "payable": false,
      "stateMutability": "view",
      "type": "function"
    },
    {
      "constant": true,
      "inputs": [
        {
          "name": "",
          "type": "uint256"
        }
      ],
      "name": "codePosition",
      "outputs": [
        {
          "name": "",
          "type": "uint256"
        }
      ],
      "payable": false,
      "stateMutability": "view",
      "type": "function"
    },
    {
      "inputs": [],
      "payable": false,
      "stateMutability": "nonpayable",
      "type": "constructor"
    },
    {
      "anonymous": false,
      "inputs": [
        {
          "indexed": true,
          "name": "_code",
          "type": "uint256"
        }
      ],
      "name": "createdEvent",
      "type": "event"
    },
    {
      "constant": false,
      "inputs": [
        {
          "name": "_geology",
          "type": "uint256"
        },
        {
          "name": "_drilling",
          "type": "uint256"
        }
      ],
      "name": "spendInExploration",
      "outputs": [],
      "payable": false,
      "stateMutability": "nonpayable",
      "type": "function"
    },
    {
      "constant": false,
      "inputs": [
        {
          "name": "_evaluation",
          "type": "uint256"
        },
        {
          "name": "_engineering",
          "type": "uint256"
        }
      ],
      "name": "spendInDevelopment",
      "outputs": [],
      "payable": false,
      "stateMutability": "nonpayable",
      "type": "function"
    }
  ],
  "bytecode": "0x608060405234801561001057600080fd5b506100256404a817c80061002a60201b60201c565b6100c0565b6007600081548092919060010191905055506040518060400160405280828152602001600073ffffffffffffffffffffffffffffffffffffffff16815250600080820151816000015560208201518160010160006101000a81548173ffffffffffffffffffffffffffffffffffffffff021916908373ffffffffffffffffffffffffffffffffffffffff16021790555090505050565b610756806100cf6000396000f3fe608060405234801561001057600080fd5b50600436106100935760003560e01c8063956068861161006657806395606886146101375780639d12d01514610169578063aa8c217c14610187578063ab5f9e45146101a6578063c696a92d146101d657610093565b80630e7f8bac1461009857806313662679146100b457806315292f53146100e6578063246b0e5c14610119575b600080fd5b6100b260048036036100ad919081019061053e565b6101f2565b005b6100ce60048036036100c99190810190610515565b6102a5565b6040516100dd9392919061063c565b60405180910390f35b61010060048036036100fb9190810190610515565b6102cf565b6040516101109493929190610673565b60405180910390f35b6101216102ff565b60405161012e91906105f8565b60405180910390f35b610151600480360361014c9190810190610515565b610305565b6040516101609392919061063c565b60405180910390f35b61017161032f565b60405161017e91906105f8565b60405180910390f35b61018f610335565b60405161019d929190610613565b60405180910390f35b6101c060048036036101bb9190810190610515565b610367565b6040516101cd91906105f8565b60405180910390f35b6101f060048036036101eb919081019061053e565b61037f565b005b60066000815480929190600101919050555061020e8282610432565b604051806060016040528060065481526020018381526020018281525060036000600654815260200190815260200160002060008201518160000155602082015181600101556040820151816002015590505080826000800154030360008001819055506006547fa854a749979502a204992acac225fdcbf427947356505ac9c7126f6244f1434460405160405180910390a25050565b60036020528060005260406000206000915090508060000154908060010154908060020154905083565b60046020528060005260406000206000915090508060000154908060010154908060020154908060030154905084565b60075481565b60026020528060005260406000206000915090508060000154908060010154908060020154905083565b60065481565b60008060000154908060010160009054906101000a900473ffffffffffffffffffffffffffffffffffffffff16905082565b60056020528060005260406000206000915090505481565b60066000815480929190600101919050555061039b8282610499565b604051806060016040528060065481526020018381526020018281525060026000600654815260200190815260200160002060008201518160000155602082015181600101556040820151816002015590505080826000800154030360008001819055506006547fa854a749979502a204992acac225fdcbf427947356505ac9c7126f6244f1434460405160405180910390a25050565b60008210158015610444575060008110155b80156104565750600080015481830111155b610495576040517f08c379a000000000000000000000000000000000000000000000000000000000815260040161048c906105d8565b60405180910390fd5b5050565b600082101580156104ab575060008110155b80156104bd5750600080015481830111155b6104fc576040517f08c379a00000000000000000000000000000000000000000000000000000000081526004016104f3906105d8565b60405180910390fd5b5050565b60008135905061050f81610705565b92915050565b60006020828403121561052757600080fd5b600061053584828501610500565b91505092915050565b6000806040838503121561055157600080fd5b600061055f85828601610500565b925050602061057085828601610500565b9150509250929050565b610583816106c9565b82525050565b60006105966018836106b8565b91507f76616c756520677261746572207468616e20616d6f756e7400000000000000006000830152602082019050919050565b6105d2816106fb565b82525050565b600060208201905081810360008301526105f181610589565b9050919050565b600060208201905061060d60008301846105c9565b92915050565b600060408201905061062860008301856105c9565b610635602083018461057a565b9392505050565b600060608201905061065160008301866105c9565b61065e60208301856105c9565b61066b60408301846105c9565b949350505050565b600060808201905061068860008301876105c9565b61069560208301866105c9565b6106a260408301856105c9565b6106af60608301846105c9565b95945050505050565b600082825260208201905092915050565b60006106d4826106db565b9050919050565b600073ffffffffffffffffffffffffffffffffffffffff82169050919050565b6000819050919050565b61070e816106fb565b811461071957600080fd5b5056fea265627a7a72305820b37191e4a30c240b827433f05e13f48aaa52a7269538b8b4c7ba0b542d624a616c6578706572696d656e74616cf50037",
  "source": "pragma solidity 0.5.8;\npragma experimental ABIEncoderV2;\n\ncontract Upstream {\n\n    event createdEvent (\n        uint indexed _code\n    );\n\n    struct Amount {\n        uint value;\n        address last_investment_owner;\n    }\n\n    struct Exploration {\n        uint code;\n        uint geology;\n        uint drilling;\n    }\n\n    struct Development {\n        uint code;\n        uint evaluation;\n        uint engineering;\n    }\n\n    struct Production {\n        uint code;\n        uint mobilization;\n        uint production;\n        uint monitoring;\n    }\n    // Read/write Upstream\n    Amount public amount;\n    mapping(uint => Exploration) public explorations;\n    mapping(uint => Development) public developments;\n    mapping(uint => Production) public productions;\n    mapping(uint => uint) public codePosition;\n    uint public spendCount;\n    uint public investmentCount;\n\n    constructor () public {\n\t\taddAmount(20000000000);\n\t}\n\n\tfunction addAmount (uint _amount) private {\n\t\tinvestmentCount ++;\n\t\tamount = Amount(_amount, address(0));\n\t}\n\n    function spendInExploration ( uint _geology,\n                                uint _drilling) public {\n        spendCount ++;\n        validateSpendInExploration(_geology, _drilling);\n        explorations[spendCount] = Exploration(spendCount, _geology, _drilling);\n        amount.value = amount.value - _geology - _drilling;\n        emit createdEvent(spendCount);\n    }\n\n    function spendInDevelopment ( uint _evaluation,\n                                uint _engineering) public {\n        spendCount ++;\n        validateSpendInDevelopment(_evaluation, _engineering);\n        developments[spendCount] = Development(spendCount, _evaluation, _engineering);\n        amount.value = amount.value - _evaluation - _engineering;\n        emit createdEvent(spendCount);\n    }\n\n    function validateSpendInExploration(uint _geology, uint _drilling) private {\n        require(_geology >= 0 && _drilling >= 0 && _geology + _drilling <= amount.value, 'value grater than amount');\n    }\n\n    function validateSpendInDevelopment(uint _evaluation, uint _engineering) private {\n        require(_evaluation >= 0 && _engineering >= 0 && _evaluation + _engineering <= amount.value, 'value grater than amount');\n    }\n\n    // function getPersonKey(uint _code) public view returns(uint) {\n    //     uint position = codePosition[_code];\n    //     return position;\n    // }\n\n    // function validatePerson(Person memory person) private {\n    //     require(people[person.code].code == 0, 'code must be unique');\n    //     require(bytes(person.name).length > 0, 'name must not be empty');\n    //     require(bytes(person.city).length > 0, 'city must not be empty');\n    //     require(person.day > 0 && person.day < 31, 'wrong day');\n    //     require(person.month > 0 && person.month < 13, 'wrong month');\n    //     require(person.year > 0, 'year must not be empty');\n    //     bytes memory gender = bytes(person.gender);\n    //     require(keccak256(gender) == keccak256('M') || keccak256(gender) == keccak256('F'), 'gender must not be M or F');\n    //     require(bytes(person.hour).length > 0, 'hour must not be empty');\n    // }\n\n    // function validateRelatives(Relatives memory relative) private {\n    //     require(relativeList[relative.code].code == 0, 'code must be unique');\n    //     require(bytes(relative.father).length > 0, 'father must not be empty');\n    //     require(bytes(relative.mother).length > 0, 'mother must not be empty');\n    //     require(bytes(relative.paternalGrandfather).length > 0, 'paternalGrandfather must not be empty');\n    //     require(bytes(relative.paternalGrandmother).length > 0, 'paternalGrandmother must not be empty');\n    //     require(bytes(relative.maternalGrandfather).length > 0, 'maternalGrandfather must not be empty');\n    //     require(bytes(relative.maternalGrandmother).length > 0, 'maternalGrandmother must not be empty');\n    //     // require(bytes(person.witness).length > 0, 'witness must not be empty');\n    // }\n}",
  "sourcePath": "/Users/douglasmandarino/Documents/PUC/Blockchain/TRAB_2/oleogas-blockchain/Upstream/contracts/Upstream.sol",
  "compiler": {
    "name": "solc",
    "version": "0.5.8+commit.23d335f2.Emscripten.clang"
  },
  "schemaVersion": "3.0.16",
  "updatedAt": "2019-12-01T02:19:02.570Z",
  "devdoc": {
    "methods": {}
  },
  "userdoc": {
    "methods": {}
  }
}