{
  "contractName": "Upstream",
  "abi": [
    {
      "constant": true,
      "inputs": [],
      "name": "explorationsCount",
      "outputs": [
        {
          "name": "",
          "type": "uint256"
        }
      ],
      "payable": false,
      "stateMutability": "view",
      "type": "function"
    },
    {
      "constant": true,
      "inputs": [
        {
          "name": "",
          "type": "uint256"
        }
      ],
      "name": "developments",
      "outputs": [
        {
          "name": "code",
          "type": "uint256"
        },
        {
          "name": "evaluation",
          "type": "uint256"
        },
        {
          "name": "engineering",
          "type": "uint256"
        },
        {
          "name": "date",
          "type": "uint256"
        },
        {
          "name": "last_investment_owner",
          "type": "address"
        }
      ],
      "payable": false,
      "stateMutability": "view",
      "type": "function"
    },
    {
      "constant": true,
      "inputs": [
        {
          "name": "",
          "type": "uint256"
        }
      ],
      "name": "productions",
      "outputs": [
        {
          "name": "code",
          "type": "uint256"
        },
        {
          "name": "mobilization",
          "type": "uint256"
        },
        {
          "name": "production",
          "type": "uint256"
        },
        {
          "name": "monitoring",
          "type": "uint256"
        },
        {
          "name": "date",
          "type": "uint256"
        },
        {
          "name": "last_investment_owner",
          "type": "address"
        }
      ],
      "payable": false,
      "stateMutability": "view",
      "type": "function"
    },
    {
      "constant": true,
      "inputs": [],
      "name": "totalAmount",
      "outputs": [
        {
          "name": "",
          "type": "uint256"
        }
      ],
      "payable": false,
      "stateMutability": "view",
      "type": "function"
    },
    {
      "constant": true,
      "inputs": [],
      "name": "developmentsCount",
      "outputs": [
        {
          "name": "",
          "type": "uint256"
        }
      ],
      "payable": false,
      "stateMutability": "view",
      "type": "function"
    },
    {
      "constant": true,
      "inputs": [
        {
          "name": "",
          "type": "uint256"
        }
      ],
      "name": "explorations",
      "outputs": [
        {
          "name": "code",
          "type": "uint256"
        },
        {
          "name": "geology",
          "type": "uint256"
        },
        {
          "name": "drilling",
          "type": "uint256"
        },
        {
          "name": "date",
          "type": "uint256"
        },
        {
          "name": "last_investment_owner",
          "type": "address"
        }
      ],
      "payable": false,
      "stateMutability": "view",
      "type": "function"
    },
    {
      "constant": true,
      "inputs": [],
      "name": "amount",
      "outputs": [
        {
          "name": "",
          "type": "uint256"
        }
      ],
      "payable": false,
      "stateMutability": "view",
      "type": "function"
    },
    {
      "constant": true,
      "inputs": [],
      "name": "productionsCount",
      "outputs": [
        {
          "name": "",
          "type": "uint256"
        }
      ],
      "payable": false,
      "stateMutability": "view",
      "type": "function"
    },
    {
      "inputs": [],
      "payable": false,
      "stateMutability": "nonpayable",
      "type": "constructor"
    },
    {
      "anonymous": false,
      "inputs": [
        {
          "indexed": true,
          "name": "_code",
          "type": "uint256"
        }
      ],
      "name": "createdEvent",
      "type": "event"
    },
    {
      "constant": false,
      "inputs": [
        {
          "name": "_amount",
          "type": "uint256"
        }
      ],
      "name": "addAmount",
      "outputs": [],
      "payable": false,
      "stateMutability": "nonpayable",
      "type": "function"
    },
    {
      "constant": false,
      "inputs": [
        {
          "name": "_geology",
          "type": "uint256"
        },
        {
          "name": "_drilling",
          "type": "uint256"
        },
        {
          "name": "_date",
          "type": "uint256"
        }
      ],
      "name": "spendInExploration",
      "outputs": [],
      "payable": false,
      "stateMutability": "nonpayable",
      "type": "function"
    },
    {
      "constant": false,
      "inputs": [
        {
          "name": "_evaluation",
          "type": "uint256"
        },
        {
          "name": "_engineering",
          "type": "uint256"
        },
        {
          "name": "_date",
          "type": "uint256"
        }
      ],
      "name": "spendInDevelopment",
      "outputs": [],
      "payable": false,
      "stateMutability": "nonpayable",
      "type": "function"
    },
    {
      "constant": false,
      "inputs": [
        {
          "name": "_mobilization",
          "type": "uint256"
        },
        {
          "name": "_production",
          "type": "uint256"
        },
        {
          "name": "_monitoring",
          "type": "uint256"
        },
        {
          "name": "_date",
          "type": "uint256"
        }
      ],
      "name": "spendInProduction",
      "outputs": [],
      "payable": false,
      "stateMutability": "nonpayable",
      "type": "function"
    },
    {
      "constant": true,
      "inputs": [],
      "name": "getDevelopmentSpent",
      "outputs": [
        {
          "name": "",
          "type": "uint256"
        },
        {
          "name": "",
          "type": "uint256"
        }
      ],
      "payable": false,
      "stateMutability": "view",
      "type": "function"
    },
    {
      "constant": true,
      "inputs": [],
      "name": "getProductionSpent",
      "outputs": [
        {
          "name": "",
          "type": "uint256"
        },
        {
          "name": "",
          "type": "uint256"
        },
        {
          "name": "",
          "type": "uint256"
        }
      ],
      "payable": false,
      "stateMutability": "view",
      "type": "function"
    },
    {
      "constant": true,
      "inputs": [],
      "name": "getExplorationSpent",
      "outputs": [
        {
          "name": "",
          "type": "uint256"
        },
        {
          "name": "",
          "type": "uint256"
        }
      ],
      "payable": false,
      "stateMutability": "view",
      "type": "function"
    },
    {
      "constant": true,
      "inputs": [
        {
          "name": "_code",
          "type": "uint256"
        }
      ],
      "name": "getExploration",
      "outputs": [
        {
          "name": "",
          "type": "uint256"
        },
        {
          "name": "",
          "type": "uint256"
        },
        {
          "name": "",
          "type": "uint256"
        }
      ],
      "payable": false,
      "stateMutability": "view",
      "type": "function"
    },
    {
      "constant": true,
      "inputs": [
        {
          "name": "_code",
          "type": "uint256"
        }
      ],
      "name": "getProduction",
      "outputs": [
        {
          "name": "",
          "type": "uint256"
        },
        {
          "name": "",
          "type": "uint256"
        },
        {
          "name": "",
          "type": "uint256"
        },
        {
          "name": "",
          "type": "uint256"
        }
      ],
      "payable": false,
      "stateMutability": "view",
      "type": "function"
    },
    {
      "constant": true,
      "inputs": [
        {
          "name": "_code",
          "type": "uint256"
        }
      ],
      "name": "getDevelopment",
      "outputs": [
        {
          "name": "",
          "type": "uint256"
        },
        {
          "name": "",
          "type": "uint256"
        },
        {
          "name": "",
          "type": "uint256"
        }
      ],
      "payable": false,
      "stateMutability": "view",
      "type": "function"
    }
  ],
  "bytecode": "0x608060405234801561001057600080fd5b50610021600061002660201b60201c565b610048565b8060008082825401925050819055508060016000828254019250508190555050565b610fea806100576000396000f3fe608060405234801561001057600080fd5b50600436106101165760003560e01c8063819d1348116100a2578063aa8c217c11610071578063aa8c217c146104b9578063b31f75f0146104d7578063baa19e83146104f5578063f6886bdd1461051a578063f850d0121461056a57610116565b8063819d1348146103a357806388f3335b146103c157806395606886146103ed5780639c74016b1461047757610116565b806315292f53116100e957806315292f53146102415780631a39d8ef146102d2578063386b242b146102f05780634c8ca75e1461031557806360d3b8e01461035757610116565b80630912f2321461011b5780630df64cfa14610149578063113e8d611461016757806313662679146101b7575b600080fd5b6101476004803603602081101561013157600080fd5b81019080803590602001909291905050506105c1565b005b6101516105e3565b6040518082815260200191505060405180910390f35b6101936004803603602081101561017d57600080fd5b81019080803590602001909291905050506105e9565b60405180848152602001838152602001828152602001935050505060405180910390f35b6101e3600480360360208110156101cd57600080fd5b810190808035906020019092919050505061065b565b604051808681526020018581526020018481526020018381526020018273ffffffffffffffffffffffffffffffffffffffff1673ffffffffffffffffffffffffffffffffffffffff1681526020019550505050505060405180910390f35b61026d6004803603602081101561025757600080fd5b81019080803590602001909291905050506106b1565b604051808781526020018681526020018581526020018481526020018381526020018273ffffffffffffffffffffffffffffffffffffffff1673ffffffffffffffffffffffffffffffffffffffff168152602001965050505050505060405180910390f35b6102da61070d565b6040518082815260200191505060405180910390f35b6102f8610713565b604051808381526020018281526020019250505060405180910390f35b6103556004803603606081101561032b57600080fd5b81019080803590602001909291908035906020019092919080359060200190929190505050610780565b005b6103a16004803603608081101561036d57600080fd5b81019080803590602001909291908035906020019092919080359060200190929190803590602001909291905050506108a8565b005b6103ab6109e4565b6040518082815260200191505060405180910390f35b6103c96109ea565b60405180848152602001838152602001828152602001935050505060405180910390f35b6104196004803603602081101561040357600080fd5b8101908080359060200190929190505050610a7e565b604051808681526020018581526020018481526020018381526020018273ffffffffffffffffffffffffffffffffffffffff1673ffffffffffffffffffffffffffffffffffffffff1681526020019550505050505060405180910390f35b6104b76004803603606081101561048d57600080fd5b81019080803590602001909291908035906020019092919080359060200190929190505050610ad4565b005b6104c1610bfc565b6040518082815260200191505060405180910390f35b6104df610c02565b6040518082815260200191505060405180910390f35b6104fd610c08565b604051808381526020018281526020019250505060405180910390f35b6105466004803603602081101561053057600080fd5b8101908080359060200190929190505050610c75565b60405180848152602001838152602001828152602001935050505060405180910390f35b6105966004803603602081101561058057600080fd5b8101908080359060200190929190505050610ce7565b6040518085815260200184815260200183815260200182815260200194505050505060405180910390f35b8060008082825401925050819055508060016000828254019250508190555050565b60055481565b60008060008060009050600080905060008090506002600088815260200190815260200160002060030154905060026000888152602001908152602001600020600101549250600260008881526020019081526020016000206002015491508083839550955095505050509193909250565b60036020528060005260406000206000915090508060000154908060010154908060020154908060030154908060040160009054906101000a900473ffffffffffffffffffffffffffffffffffffffff16905085565b60046020528060005260406000206000915090508060000154908060010154908060020154908060030154908060040154908060050160009054906101000a900473ffffffffffffffffffffffffffffffffffffffff16905086565b60015481565b600080600080905060008090506000600190505b6006548111610773576003600082815260200190815260200160002060010154830192506003600082815260200190815260200160002060020154820191508080600101915050610727565b5081819350935050509091565b60056000815480929190600101919050555061079c8383610d7c565b6040518060a001604052806005548152602001848152602001838152602001828152602001600073ffffffffffffffffffffffffffffffffffffffff168152506002600060055481526020019081526020016000206000820151816000015560208201518160010155604082015181600201556060820151816003015560808201518160040160006101000a81548173ffffffffffffffffffffffffffffffffffffffff021916908373ffffffffffffffffffffffffffffffffffffffff16021790555090505081830160008082825403925050819055506005547fa854a749979502a204992acac225fdcbf427947356505ac9c7126f6244f1434460405160405180910390a2505050565b6007600081548092919060010191905055506108c5848484610e14565b6040518060c001604052806007548152602001858152602001848152602001838152602001828152602001600073ffffffffffffffffffffffffffffffffffffffff16815250600460006007548152602001908152602001600020600082015181600001556020820151816001015560408201518160020155606082015181600301556080820151816004015560a08201518160050160006101000a81548173ffffffffffffffffffffffffffffffffffffffff021916908373ffffffffffffffffffffffffffffffffffffffff160217905550905050818385010160008082825403925050819055506007547fa854a749979502a204992acac225fdcbf427947356505ac9c7126f6244f1434460405160405180910390a250505050565b60065481565b60008060008060009050600080905060008090506000600190505b6007548111610a6c576004600082815260200190815260200160002060010154840193506004600082815260200190815260200160002060020154830192506004600082815260200190815260200160002060030154820191508080600101915050610a05565b50828282955095509550505050909192565b60026020528060005260406000206000915090508060000154908060010154908060020154908060030154908060040160009054906101000a900473ffffffffffffffffffffffffffffffffffffffff16905085565b600660008154809291906001019190505550610af08383610f26565b6040518060a001604052806006548152602001848152602001838152602001828152602001600073ffffffffffffffffffffffffffffffffffffffff168152506003600060065481526020019081526020016000206000820151816000015560208201518160010155604082015181600201556060820151816003015560808201518160040160006101000a81548173ffffffffffffffffffffffffffffffffffffffff021916908373ffffffffffffffffffffffffffffffffffffffff16021790555090505081830160008082825403925050819055506006547fa854a749979502a204992acac225fdcbf427947356505ac9c7126f6244f1434460405160405180910390a2505050565b60005481565b60075481565b600080600080905060008090506000600190505b6005548111610c68576002600082815260200190815260200160002060010154830192506002600082815260200190815260200160002060020154820191508080600101915050610c1c565b5081819350935050509091565b60008060008060009050600080905060008090506003600088815260200190815260200160002060030154905060036000888152602001908152602001600020600101549250600360008881526020019081526020016000206002015491508083839550955095505050509193909250565b6000806000806000809050600080905060008090506000809050600460008a8152602001908152602001600020600401549050600460008a8152602001908152602001600020600101549350600460008a8152602001908152602001600020600201549250600460008a8152602001908152602001600020600301549150808484849750975097509750505050509193509193565b60008210158015610d8e575060008110155b8015610d9e575060005481830111155b610e10576040517f08c379a00000000000000000000000000000000000000000000000000000000081526004018080602001828103825260188152602001807f76616c756520677261746572207468616e20616d6f756e74000000000000000081525060200191505060405180910390fd5b5050565b60008310158015610e26575060008210155b8015610e33575060008110155b610ea5576040517f08c379a000000000000000000000000000000000000000000000000000000000815260040180806020018281038252600f8152602001807f6e656761746976652076616c756573000000000000000000000000000000000081525060200191505060405180910390fd5b60005481838501011115610f21576040517f08c379a00000000000000000000000000000000000000000000000000000000081526004018080602001828103825260188152602001807f76616c756520677261746572207468616e20616d6f756e74000000000000000081525060200191505060405180910390fd5b505050565b60008210158015610f38575060008110155b8015610f48575060005481830111155b610fba576040517f08c379a00000000000000000000000000000000000000000000000000000000081526004018080602001828103825260188152602001807f76616c756520677261746572207468616e20616d6f756e74000000000000000081525060200191505060405180910390fd5b505056fea165627a7a723058206c3157dac8fb68f314fdc2b4d06484ce59bac4b4b78df31a6a2a87ea1625a6d20029",
  "source": "pragma solidity ^0.5.0;\r\n\r\ncontract Upstream {\r\n\r\n    event createdEvent (\r\n        uint indexed _code\r\n    );\r\n\r\n    struct Exploration {\r\n        uint code;\r\n        uint geology;\r\n        uint drilling;\r\n        uint date;\r\n        address last_investment_owner;\r\n    }\r\n\r\n    struct Development {\r\n        uint code;\r\n        uint evaluation;\r\n        uint engineering;\r\n        uint date;\r\n        address last_investment_owner;\r\n    }\r\n\r\n    struct Production {\r\n        uint code;\r\n        uint mobilization;\r\n        uint production;\r\n        uint monitoring;\r\n        uint date;\r\n        address last_investment_owner;\r\n    }\r\n    // Read/write Upstream\r\n    uint public amount;\r\n    uint public totalAmount;\r\n    mapping(uint => Exploration) public explorations;\r\n    mapping(uint => Development) public developments;\r\n    mapping(uint => Production) public productions;\r\n    uint public explorationsCount;\r\n    uint public developmentsCount;\r\n    uint public productionsCount;\r\n\r\n    constructor () public {\r\n        addAmount(0);\r\n    }\r\n\r\n    function addAmount (uint _amount) public {\r\n        amount += _amount;\r\n        totalAmount += _amount;\r\n    }\r\n\r\n    function spendInExploration ( uint _geology,\r\n                                uint _drilling,\r\n                                uint _date) public {\r\n        explorationsCount ++;\r\n        validateSpendInExploration(_geology, _drilling);\r\n        explorations[explorationsCount] = Exploration(explorationsCount, _geology, _drilling, _date, address(0));\r\n        amount -= (_geology + _drilling);\r\n        emit createdEvent(explorationsCount);\r\n    }\r\n\r\n    function spendInDevelopment ( uint _evaluation,\r\n                                uint _engineering,\r\n                                uint _date) public {\r\n        developmentsCount ++;\r\n        validateSpendInDevelopment(_evaluation, _engineering);\r\n        developments[developmentsCount] = Development(developmentsCount, _evaluation, _engineering, _date, address(0));\r\n        amount -= (_evaluation + _engineering);\r\n        emit createdEvent(developmentsCount);\r\n    }\r\n\r\n    function spendInProduction ( uint _mobilization,\r\n                                uint _production,\r\n                                uint _monitoring,\r\n                                uint _date) public {\r\n        productionsCount ++;\r\n        validateSpendInProduction(_mobilization, _production, _monitoring);\r\n        productions[productionsCount] = Production(productionsCount, _mobilization, _production, _monitoring, _date, address(0));\r\n        amount -= (_mobilization + _production + _monitoring);\r\n        emit createdEvent(productionsCount);\r\n    }\r\n\r\n    function getDevelopmentSpent() public view returns(uint, uint) {\r\n        uint evaluation = 0;\r\n        uint engineering = 0;\r\n        for (uint i = 1; i <= developmentsCount; i++) {\r\n            evaluation = evaluation + developments[i].evaluation;\r\n            engineering = engineering + developments[i].engineering;\r\n        }\r\n        return (evaluation, engineering);\r\n    }\r\n\r\n    function getProductionSpent() public view returns(uint, uint, uint) {\r\n        uint mobilization = 0;\r\n        uint production = 0;\r\n        uint monitoring = 0;\r\n        for (uint i = 1; i <= productionsCount; i++) {\r\n            mobilization = mobilization + productions[i].mobilization;\r\n            production = production + productions[i].production;\r\n            monitoring = monitoring + productions[i].monitoring;\r\n        }\r\n        return (mobilization, production, monitoring);\r\n    }\r\n\r\n    function getExplorationSpent() public view returns(uint, uint) {\r\n        uint geology = 0;\r\n        uint drilling = 0;\r\n        for (uint i = 1; i <= explorationsCount; i++) {\r\n            geology = geology + explorations[i].geology;\r\n            drilling = drilling + explorations[i].drilling;\r\n        }\r\n        return (geology, drilling);\r\n    }\r\n\r\n    function getExploration(uint _code) public view returns(uint, uint, uint) {\r\n        uint geology = 0;\r\n        uint drilling = 0;\r\n        uint date = 0;\r\n        date = explorations[_code].date;\r\n        geology = explorations[_code].geology;\r\n        drilling = explorations[_code].drilling;\r\n        return (date, geology, drilling);\r\n    }\r\n\r\n    function getProduction(uint _code) public view returns(uint, uint, uint, uint) {\r\n        uint mobilization = 0;\r\n        uint production = 0;\r\n        uint monitoring = 0;\r\n        uint date = 0;\r\n        date = productions[_code].date;\r\n        mobilization = productions[_code].mobilization;\r\n        production = productions[_code].production;\r\n        monitoring = productions[_code].monitoring;\r\n        return (date, mobilization, production, monitoring);\r\n    }\r\n\r\n    function getDevelopment(uint _code) public view returns(uint, uint, uint) {\r\n        uint evaluation = 0;\r\n        uint engineering = 0;\r\n        uint date = 0;\r\n        date = developments[_code].date;\r\n        evaluation = developments[_code].evaluation;\r\n        engineering = developments[_code].engineering;\r\n        return (date, evaluation, engineering);\r\n    }\r\n\r\n    function validateSpendInExploration(uint _geology, uint _drilling) private {\r\n        require(_geology >= 0 && _drilling >= 0 && _geology + _drilling <= amount, 'value grater than amount');\r\n    }\r\n\r\n    function validateSpendInDevelopment(uint _evaluation, uint _engineering) private {\r\n        require(_evaluation >= 0 && _engineering >= 0 && _evaluation + _engineering <= amount, 'value grater than amount');\r\n    }\r\n\r\n    function validateSpendInProduction(uint _mobilization, uint _production, uint _monitoring) private {\r\n        require(_mobilization >= 0 && _production >= 0 && _monitoring >= 0, 'negative values');\r\n        require(_mobilization + _production + _monitoring <= amount, 'value grater than amount');\r\n    }\r\n}",
  "sourcePath": "C:/Users/steph/IdeaProjects/oleogas-blockchain/Upstream/contracts/Upstream.sol",
  "compiler": {
    "name": "solc",
    "version": "0.5.8+commit.23d335f2.Emscripten.clang"
  },
  "schemaVersion": "3.0.16",
  "updatedAt": "2019-12-11T02:28:53.955Z",
  "devdoc": {
    "methods": {}
  },
  "userdoc": {
    "methods": {}
  }
}