{
  "contractName": "Upstream",
  "abi": [
    {
      "constant": true,
      "inputs": [],
      "name": "explorationsCount",
      "outputs": [
        {
          "name": "",
          "type": "uint256"
        }
      ],
      "payable": false,
      "stateMutability": "view",
      "type": "function"
    },
    {
      "constant": true,
      "inputs": [
        {
          "name": "",
          "type": "uint256"
        }
      ],
      "name": "developments",
      "outputs": [
        {
          "name": "code",
          "type": "uint256"
        },
        {
          "name": "evaluation",
          "type": "uint256"
        },
        {
          "name": "engineering",
          "type": "uint256"
        },
        {
          "name": "date",
          "type": "uint256"
        },
        {
          "name": "last_investment_owner",
          "type": "address"
        }
      ],
      "payable": false,
      "stateMutability": "view",
      "type": "function"
    },
    {
      "constant": true,
      "inputs": [
        {
          "name": "",
          "type": "uint256"
        }
      ],
      "name": "productions",
      "outputs": [
        {
          "name": "code",
          "type": "uint256"
        },
        {
          "name": "mobilization",
          "type": "uint256"
        },
        {
          "name": "production",
          "type": "uint256"
        },
        {
          "name": "monitoring",
          "type": "uint256"
        },
        {
          "name": "date",
          "type": "uint256"
        },
        {
          "name": "last_investment_owner",
          "type": "address"
        }
      ],
      "payable": false,
      "stateMutability": "view",
      "type": "function"
    },
    {
      "constant": true,
      "inputs": [],
      "name": "totalAmount",
      "outputs": [
        {
          "name": "",
          "type": "uint256"
        }
      ],
      "payable": false,
      "stateMutability": "view",
      "type": "function"
    },
    {
      "constant": true,
      "inputs": [],
      "name": "developmentsCount",
      "outputs": [
        {
          "name": "",
          "type": "uint256"
        }
      ],
      "payable": false,
      "stateMutability": "view",
      "type": "function"
    },
    {
      "constant": true,
      "inputs": [
        {
          "name": "",
          "type": "uint256"
        }
      ],
      "name": "explorations",
      "outputs": [
        {
          "name": "code",
          "type": "uint256"
        },
        {
          "name": "geology",
          "type": "uint256"
        },
        {
          "name": "drilling",
          "type": "uint256"
        },
        {
          "name": "date",
          "type": "uint256"
        },
        {
          "name": "last_investment_owner",
          "type": "address"
        }
      ],
      "payable": false,
      "stateMutability": "view",
      "type": "function"
    },
    {
      "constant": true,
      "inputs": [],
      "name": "amount",
      "outputs": [
        {
          "name": "",
          "type": "uint256"
        }
      ],
      "payable": false,
      "stateMutability": "view",
      "type": "function"
    },
    {
      "constant": true,
      "inputs": [],
      "name": "productionsCount",
      "outputs": [
        {
          "name": "",
          "type": "uint256"
        }
      ],
      "payable": false,
      "stateMutability": "view",
      "type": "function"
    },
    {
      "inputs": [],
      "payable": false,
      "stateMutability": "nonpayable",
      "type": "constructor"
    },
    {
      "anonymous": false,
      "inputs": [
        {
          "indexed": true,
          "name": "_code",
          "type": "uint256"
        }
      ],
      "name": "createdEvent",
      "type": "event"
    },
    {
      "constant": false,
      "inputs": [
        {
          "name": "_amount",
          "type": "uint256"
        }
      ],
      "name": "addAmount",
      "outputs": [],
      "payable": false,
      "stateMutability": "nonpayable",
      "type": "function"
    },
    {
      "constant": false,
      "inputs": [
        {
          "name": "_geology",
          "type": "uint256"
        },
        {
          "name": "_drilling",
          "type": "uint256"
        },
        {
          "name": "_date",
          "type": "uint256"
        }
      ],
      "name": "spendInExploration",
      "outputs": [],
      "payable": false,
      "stateMutability": "nonpayable",
      "type": "function"
    },
    {
      "constant": false,
      "inputs": [
        {
          "name": "_evaluation",
          "type": "uint256"
        },
        {
          "name": "_engineering",
          "type": "uint256"
        },
        {
          "name": "_date",
          "type": "uint256"
        }
      ],
      "name": "spendInDevelopment",
      "outputs": [],
      "payable": false,
      "stateMutability": "nonpayable",
      "type": "function"
    },
    {
      "constant": false,
      "inputs": [
        {
          "name": "_mobilization",
          "type": "uint256"
        },
        {
          "name": "_production",
          "type": "uint256"
        },
        {
          "name": "_monitoring",
          "type": "uint256"
        },
        {
          "name": "_date",
          "type": "uint256"
        }
      ],
      "name": "spendInProduction",
      "outputs": [],
      "payable": false,
      "stateMutability": "nonpayable",
      "type": "function"
    },
    {
      "constant": true,
      "inputs": [],
      "name": "getDevelopmentSpent",
      "outputs": [
        {
          "name": "",
          "type": "uint256"
        },
        {
          "name": "",
          "type": "uint256"
        }
      ],
      "payable": false,
      "stateMutability": "view",
      "type": "function"
    },
    {
      "constant": true,
      "inputs": [],
      "name": "getProductionSpent",
      "outputs": [
        {
          "name": "",
          "type": "uint256"
        },
        {
          "name": "",
          "type": "uint256"
        },
        {
          "name": "",
          "type": "uint256"
        }
      ],
      "payable": false,
      "stateMutability": "view",
      "type": "function"
    },
    {
      "constant": true,
      "inputs": [],
      "name": "getExplorationSpent",
      "outputs": [
        {
          "name": "",
          "type": "uint256"
        },
        {
          "name": "",
          "type": "uint256"
        }
      ],
      "payable": false,
      "stateMutability": "view",
      "type": "function"
    }
  ],
  "bytecode": "0x608060405234801561001057600080fd5b50610021600061002660201b60201c565b610048565b8060008082825401925050819055508060016000828254019250508190555050565b610d6c806100576000396000f3fe608060405234801561001057600080fd5b50600436106100f55760003560e01c806360d3b8e0116100975780639c74016b116100665780639c74016b14610406578063aa8c217c14610448578063b31f75f014610466578063baa19e8314610484576100f5565b806360d3b8e0146102e6578063819d13481461033257806388f3335b14610350578063956068861461037c576100f5565b806315292f53116100d357806315292f53146101d05780631a39d8ef14610261578063386b242b1461027f5780634c8ca75e146102a4576100f5565b80630912f232146100fa5780630df64cfa146101285780631366267914610146575b600080fd5b6101266004803603602081101561011057600080fd5b81019080803590602001909291905050506104a9565b005b6101306104cb565b6040518082815260200191505060405180910390f35b6101726004803603602081101561015c57600080fd5b81019080803590602001909291905050506104d1565b604051808681526020018581526020018481526020018381526020018273ffffffffffffffffffffffffffffffffffffffff1673ffffffffffffffffffffffffffffffffffffffff1681526020019550505050505060405180910390f35b6101fc600480360360208110156101e657600080fd5b8101908080359060200190929190505050610527565b604051808781526020018681526020018581526020018481526020018381526020018273ffffffffffffffffffffffffffffffffffffffff1673ffffffffffffffffffffffffffffffffffffffff168152602001965050505050505060405180910390f35b610269610583565b6040518082815260200191505060405180910390f35b610287610589565b604051808381526020018281526020019250505060405180910390f35b6102e4600480360360608110156102ba57600080fd5b810190808035906020019092919080359060200190929190803590602001909291905050506105f6565b005b610330600480360360808110156102fc57600080fd5b810190808035906020019092919080359060200190929190803590602001909291908035906020019092919050505061071e565b005b61033a61086d565b6040518082815260200191505060405180910390f35b610358610873565b60405180848152602001838152602001828152602001935050505060405180910390f35b6103a86004803603602081101561039257600080fd5b8101908080359060200190929190505050610907565b604051808681526020018581526020018481526020018381526020018273ffffffffffffffffffffffffffffffffffffffff1673ffffffffffffffffffffffffffffffffffffffff1681526020019550505050505060405180910390f35b6104466004803603606081101561041c57600080fd5b8101908080359060200190929190803590602001909291908035906020019092919050505061095d565b005b610450610a85565b6040518082815260200191505060405180910390f35b61046e610a8b565b6040518082815260200191505060405180910390f35b61048c610a91565b604051808381526020018281526020019250505060405180910390f35b8060008082825401925050819055508060016000828254019250508190555050565b60055481565b60036020528060005260406000206000915090508060000154908060010154908060020154908060030154908060040160009054906101000a900473ffffffffffffffffffffffffffffffffffffffff16905085565b60046020528060005260406000206000915090508060000154908060010154908060020154908060030154908060040154908060050160009054906101000a900473ffffffffffffffffffffffffffffffffffffffff16905086565b60015481565b600080600080905060008090506000600190505b60065481116105e957600360008281526020019081526020016000206001015483019250600360008281526020019081526020016000206002015482019150808060010191505061059d565b5081819350935050509091565b6005600081548092919060010191905055506106128383610afe565b6040518060a001604052806005548152602001848152602001838152602001828152602001600073ffffffffffffffffffffffffffffffffffffffff168152506002600060055481526020019081526020016000206000820151816000015560208201518160010155604082015181600201556060820151816003015560808201518160040160006101000a81548173ffffffffffffffffffffffffffffffffffffffff021916908373ffffffffffffffffffffffffffffffffffffffff16021790555090505081830160008082825403925050819055506005547fa854a749979502a204992acac225fdcbf427947356505ac9c7126f6244f1434460405160405180910390a2505050565b60076000815480929190600101919050555061073b848484610b96565b6040518060c001604052806007548152602001858152602001848152602001838152602001828152602001600073ffffffffffffffffffffffffffffffffffffffff16815250600460006007548152602001908152602001600020600082015181600001556020820151816001015560408201518160020155606082015181600301556080820151816004015560a08201518160050160006101000a81548173ffffffffffffffffffffffffffffffffffffffff021916908373ffffffffffffffffffffffffffffffffffffffff16021790555090505081838501016000808282540392505081905550818385010160008082825401925050819055506007547fa854a749979502a204992acac225fdcbf427947356505ac9c7126f6244f1434460405160405180910390a250505050565b60065481565b60008060008060009050600080905060008090506000600190505b60075481116108f557600460008281526020019081526020016000206001015484019350600460008281526020019081526020016000206002015483019250600460008281526020019081526020016000206003015482019150808060010191505061088e565b50828282955095509550505050909192565b60026020528060005260406000206000915090508060000154908060010154908060020154908060030154908060040160009054906101000a900473ffffffffffffffffffffffffffffffffffffffff16905085565b6006600081548092919060010191905055506109798383610ca8565b6040518060a001604052806006548152602001848152602001838152602001828152602001600073ffffffffffffffffffffffffffffffffffffffff168152506003600060065481526020019081526020016000206000820151816000015560208201518160010155604082015181600201556060820151816003015560808201518160040160006101000a81548173ffffffffffffffffffffffffffffffffffffffff021916908373ffffffffffffffffffffffffffffffffffffffff16021790555090505081830160008082825403925050819055506006547fa854a749979502a204992acac225fdcbf427947356505ac9c7126f6244f1434460405160405180910390a2505050565b60005481565b60075481565b600080600080905060008090506000600190505b6005548111610af1576002600082815260200190815260200160002060010154830192506002600082815260200190815260200160002060020154820191508080600101915050610aa5565b5081819350935050509091565b60008210158015610b10575060008110155b8015610b20575060005481830111155b610b92576040517f08c379a00000000000000000000000000000000000000000000000000000000081526004018080602001828103825260188152602001807f76616c756520677261746572207468616e20616d6f756e74000000000000000081525060200191505060405180910390fd5b5050565b60008310158015610ba8575060008210155b8015610bb5575060008110155b610c27576040517f08c379a000000000000000000000000000000000000000000000000000000000815260040180806020018281038252600f8152602001807f6e656761746976652076616c756573000000000000000000000000000000000081525060200191505060405180910390fd5b60005481838501011115610ca3576040517f08c379a00000000000000000000000000000000000000000000000000000000081526004018080602001828103825260188152602001807f76616c756520677261746572207468616e20616d6f756e74000000000000000081525060200191505060405180910390fd5b505050565b60008210158015610cba575060008110155b8015610cca575060005481830111155b610d3c576040517f08c379a00000000000000000000000000000000000000000000000000000000081526004018080602001828103825260188152602001807f76616c756520677261746572207468616e20616d6f756e74000000000000000081525060200191505060405180910390fd5b505056fea165627a7a7230582025df6ee6d76666a69182683cac34eac43d70140ce17b0ad652d7d692e2f149d00029",
  "source": "pragma solidity ^0.5.0;\r\n\r\ncontract Upstream {\r\n\r\n    event createdEvent (\r\n        uint indexed _code\r\n    );\r\n\r\n    struct Exploration {\r\n        uint code;\r\n        uint geology;\r\n        uint drilling;\r\n        uint date;\r\n        address last_investment_owner;\r\n    }\r\n\r\n    struct Development {\r\n        uint code;\r\n        uint evaluation;\r\n        uint engineering;\r\n        uint date;\r\n        address last_investment_owner;\r\n    }\r\n\r\n    struct Production {\r\n        uint code;\r\n        uint mobilization;\r\n        uint production;\r\n        uint monitoring;\r\n        uint date;\r\n        address last_investment_owner;\r\n    }\r\n    // Read/write Upstream\r\n    uint public amount;\r\n    uint public totalAmount;\r\n    mapping(uint => Exploration) public explorations;\r\n    mapping(uint => Development) public developments;\r\n    mapping(uint => Production) public productions;\r\n    uint public explorationsCount;\r\n    uint public developmentsCount;\r\n    uint public productionsCount;\r\n\r\n    constructor () public {\r\n        addAmount(0);\r\n    }\r\n\r\n\tfunction addAmount (uint _amount) public {\r\n        amount += _amount;\r\n        totalAmount += _amount;\r\n\t}\r\n\r\n    function spendInExploration ( uint _geology,\r\n                                uint _drilling,\r\n                                uint _date) public {\r\n        explorationsCount ++;\r\n        validateSpendInExploration(_geology, _drilling);\r\n        explorations[explorationsCount] = Exploration(explorationsCount, _geology, _drilling, _date, address(0));\r\n        amount -= (_geology + _drilling);\r\n        emit createdEvent(explorationsCount);\r\n    }\r\n\r\n    function spendInDevelopment ( uint _evaluation,\r\n                                uint _engineering,\r\n                                uint _date) public {\r\n        developmentsCount ++;\r\n        validateSpendInDevelopment(_evaluation, _engineering);\r\n        developments[developmentsCount] = Development(developmentsCount, _evaluation, _engineering, _date, address(0));\r\n        amount -= (_evaluation + _engineering);\r\n        emit createdEvent(developmentsCount);\r\n    }\r\n\r\n    function spendInProduction ( uint _mobilization,\r\n                                uint _production,\r\n                                uint _monitoring,\r\n                                uint _date) public {\r\n        productionsCount ++;\r\n        validateSpendInProduction(_mobilization, _production, _monitoring);\r\n        productions[productionsCount] = Production(productionsCount, _mobilization, _production, _monitoring, _date, address(0));\r\n        amount -= (_mobilization + _production + _monitoring);\r\n        amount += (_mobilization + _production + _monitoring);\r\n        emit createdEvent(productionsCount);\r\n    }\r\n\r\n    function getDevelopmentSpent() public view returns(uint, uint) {\r\n        uint evaluation = 0;\r\n        uint engineering = 0;\r\n        for (uint i = 1; i <= developmentsCount; i++) {\r\n            evaluation = evaluation + developments[i].evaluation;\r\n            engineering = engineering + developments[i].engineering;\r\n        }\r\n        return (evaluation, engineering);\r\n    }\r\n\r\n    function getProductionSpent() public view returns(uint, uint, uint) {\r\n        uint mobilization = 0;\r\n        uint production = 0;\r\n        uint monitoring = 0;\r\n        for (uint i = 1; i <= productionsCount; i++) {\r\n            mobilization = mobilization + productions[i].mobilization;\r\n            production = production + productions[i].production;\r\n            monitoring = monitoring + productions[i].monitoring;\r\n        }\r\n        return (mobilization, production, monitoring);\r\n    }\r\n\r\n    function getExplorationSpent() public view returns(uint, uint) {\r\n        uint geology = 0;\r\n        uint drilling = 0;\r\n        for (uint i = 1; i <= explorationsCount; i++) {\r\n            geology = geology + explorations[i].geology;\r\n            drilling = drilling + explorations[i].drilling;\r\n        }\r\n        return (geology, drilling);\r\n    }\r\n\r\n    function validateSpendInExploration(uint _geology, uint _drilling) private {\r\n        require(_geology >= 0 && _drilling >= 0 && _geology + _drilling <= amount, 'value grater than amount');\r\n    }\r\n\r\n    function validateSpendInDevelopment(uint _evaluation, uint _engineering) private {\r\n        require(_evaluation >= 0 && _engineering >= 0 && _evaluation + _engineering <= amount, 'value grater than amount');\r\n    }\r\n\r\n    function validateSpendInProduction(uint _mobilization, uint _production, uint _monitoring) private {\r\n        require(_mobilization >= 0 && _production >= 0 && _monitoring >= 0, 'negative values');\r\n        require(_mobilization + _production + _monitoring <= amount, 'value grater than amount');\r\n    }\r\n}",
  "sourcePath": "C:/Users/steph/IdeaProjects/oleogas-blockchain/Upstream/contracts/Upstream.sol",
  "compiler": {
    "name": "solc",
    "version": "0.5.8+commit.23d335f2.Emscripten.clang"
  },
  "schemaVersion": "3.0.16",
  "updatedAt": "2019-12-09T22:09:52.390Z",
  "devdoc": {
    "methods": {}
  },
  "userdoc": {
    "methods": {}
  }
}