{
  "contractName": "Notary",
  "abi": [
    {
      "constant": true,
      "inputs": [],
      "name": "certificateCount",
      "outputs": [
        {
          "name": "",
          "type": "uint256"
        }
      ],
      "payable": false,
      "stateMutability": "view",
      "type": "function"
    },
    {
      "constant": true,
      "inputs": [
        {
          "name": "",
          "type": "uint256"
        }
      ],
      "name": "extras",
      "outputs": [
        {
          "name": "code",
          "type": "uint256"
        },
        {
          "name": "witness",
          "type": "string"
        }
      ],
      "payable": false,
      "stateMutability": "view",
      "type": "function"
    },
    {
      "constant": true,
      "inputs": [
        {
          "name": "",
          "type": "uint256"
        }
      ],
      "name": "people",
      "outputs": [
        {
          "name": "code",
          "type": "uint256"
        },
        {
          "name": "name",
          "type": "string"
        },
        {
          "name": "city",
          "type": "string"
        },
        {
          "name": "state",
          "type": "string"
        },
        {
          "name": "gender",
          "type": "string"
        },
        {
          "name": "day",
          "type": "uint256"
        },
        {
          "name": "month",
          "type": "uint256"
        },
        {
          "name": "year",
          "type": "uint256"
        },
        {
          "name": "hour",
          "type": "string"
        }
      ],
      "payable": false,
      "stateMutability": "view",
      "type": "function"
    },
    {
      "constant": true,
      "inputs": [
        {
          "name": "",
          "type": "uint256"
        }
      ],
      "name": "codePosition",
      "outputs": [
        {
          "name": "",
          "type": "uint256"
        }
      ],
      "payable": false,
      "stateMutability": "view",
      "type": "function"
    },
    {
      "constant": true,
      "inputs": [
        {
          "name": "",
          "type": "uint256"
        }
      ],
      "name": "relativeList",
      "outputs": [
        {
          "name": "code",
          "type": "uint256"
        },
        {
          "name": "father",
          "type": "string"
        },
        {
          "name": "mother",
          "type": "string"
        },
        {
          "name": "paternalGrandfather",
          "type": "string"
        },
        {
          "name": "paternalGrandmother",
          "type": "string"
        },
        {
          "name": "maternalGrandfather",
          "type": "string"
        },
        {
          "name": "maternalGrandmother",
          "type": "string"
        }
      ],
      "payable": false,
      "stateMutability": "view",
      "type": "function"
    },
    {
      "inputs": [],
      "payable": false,
      "stateMutability": "nonpayable",
      "type": "constructor"
    },
    {
      "anonymous": false,
      "inputs": [
        {
          "indexed": true,
          "name": "_code",
          "type": "uint256"
        }
      ],
      "name": "createdEvent",
      "type": "event"
    },
    {
      "constant": false,
      "inputs": [
        {
          "name": "_code",
          "type": "uint256"
        },
        {
          "name": "_name",
          "type": "string"
        },
        {
          "name": "_city",
          "type": "string"
        },
        {
          "name": "_state",
          "type": "string"
        },
        {
          "name": "_gender",
          "type": "string"
        },
        {
          "name": "_day",
          "type": "uint256"
        },
        {
          "name": "_month",
          "type": "uint256"
        },
        {
          "name": "_year",
          "type": "uint256"
        },
        {
          "name": "_hour",
          "type": "string"
        }
      ],
      "name": "createPerson",
      "outputs": [],
      "payable": false,
      "stateMutability": "nonpayable",
      "type": "function"
    },
    {
      "constant": false,
      "inputs": [
        {
          "name": "_code",
          "type": "uint256"
        },
        {
          "name": "_father",
          "type": "string"
        },
        {
          "name": "_mother",
          "type": "string"
        },
        {
          "name": "_paternalGrandfather",
          "type": "string"
        },
        {
          "name": "_paternalGrandmother",
          "type": "string"
        },
        {
          "name": "_maternalGrandfather",
          "type": "string"
        },
        {
          "name": "_maternalGrandmother",
          "type": "string"
        }
      ],
      "name": "createRelatives",
      "outputs": [],
      "payable": false,
      "stateMutability": "nonpayable",
      "type": "function"
    },
    {
      "constant": true,
      "inputs": [
        {
          "name": "_code",
          "type": "uint256"
        }
      ],
      "name": "getPersonKey",
      "outputs": [
        {
          "name": "",
          "type": "uint256"
        }
      ],
      "payable": false,
      "stateMutability": "view",
      "type": "function"
    }
  ],
  "bytecode": "0x608060405234801561001057600080fd5b50611f6c806100206000396000f3fe608060405234801561001057600080fd5b50600436106100885760003560e01c8063a7d326741161005b578063a7d3267414610130578063ab5f9e451461014c578063c2bee8f51461017c578063e54a9b5a146101b257610088565b806352d7b89c1461008d5780635468bc2f146100ab57806372960e2f146100dc5780639e7a13ad146100f8575b600080fd5b6100956101e2565b6040516100a29190611caa565b60405180910390f35b6100c560048036036100c0919081019061134b565b6101e8565b6040516100d3929190611cc5565b60405180910390f35b6100f660048036036100f19190810190611374565b6102a4565b005b610112600480360361010d919081019061134b565b6103fd565b60405161012799989796959493929190611d8e565b60405180910390f35b61014a600480360361014591908101906114a2565b610743565b005b6101666004803603610161919081019061134b565b6108e1565b6040516101739190611caa565b60405180910390f35b6101966004803603610191919081019061134b565b6108f9565b6040516101a99796959493929190611cf5565b60405180910390f35b6101cc60048036036101c7919081019061134b565b610ccb565b6040516101d99190611caa565b60405180910390f35b60045481565b6002602052806000526040600020600091509050806000015490806001018054600181600116156101000203166002900480601f01602080910402602001604051908101604052809291908181526020018280546001816001161561010002031660029004801561029a5780601f1061026f5761010080835404028352916020019161029a565b820191906000526020600020905b81548152906001019060200180831161027d57829003601f168201915b5050505050905082565b6102ac6111b4565b87816000018181525050868160200181905250858160400181905250848160600181905250838160800181905250828160a00181905250818160c001819052506102f581610ced565b806001600060045481526020019081526020016000206000820151816000015560208201518160010190805190602001906103319291906111f1565b50604082015181600201908051906020019061034e9291906111f1565b50606082015181600301908051906020019061036b9291906111f1565b5060808201518160040190805190602001906103889291906111f1565b5060a08201518160050190805190602001906103a59291906111f1565b5060c08201518160060190805190602001906103c29291906111f1565b50905050877fa854a749979502a204992acac225fdcbf427947356505ac9c7126f6244f1434460405160405180910390a25050505050505050565b6000602052806000526040600020600091509050806000015490806001018054600181600116156101000203166002900480601f0160208091040260200160405190810160405280929190818152602001828054600181600116156101000203166002900480156104af5780601f10610484576101008083540402835291602001916104af565b820191906000526020600020905b81548152906001019060200180831161049257829003601f168201915b505050505090806002018054600181600116156101000203166002900480601f01602080910402602001604051908101604052809291908181526020018280546001816001161561010002031660029004801561054d5780601f106105225761010080835404028352916020019161054d565b820191906000526020600020905b81548152906001019060200180831161053057829003601f168201915b505050505090806003018054600181600116156101000203166002900480601f0160208091040260200160405190810160405280929190818152602001828054600181600116156101000203166002900480156105eb5780601f106105c0576101008083540402835291602001916105eb565b820191906000526020600020905b8154815290600101906020018083116105ce57829003601f168201915b505050505090806004018054600181600116156101000203166002900480601f0160208091040260200160405190810160405280929190818152602001828054600181600116156101000203166002900480156106895780601f1061065e57610100808354040283529160200191610689565b820191906000526020600020905b81548152906001019060200180831161066c57829003601f168201915b505050505090806005015490806006015490806007015490806008018054600181600116156101000203166002900480601f0160208091040260200160405190810160405280929190818152602001828054600181600116156101000203166002900480156107395780601f1061070e57610100808354040283529160200191610739565b820191906000526020600020905b81548152906001019060200180831161071c57829003601f168201915b5050505050905089565b60046000815480929190600101919050555061075d611271565b89816000018181525050888160200181905250878160400181905250868160600181905250858160800181905250848160a0018181525050838160c0018181525050828160e0018181525050818161010001819052506107bc81610efd565b8060008060045481526020019081526020016000206000820151816000015560208201518160010190805190602001906107f79291906111f1565b5060408201518160020190805190602001906108149291906111f1565b5060608201518160030190805190602001906108319291906111f1565b50608082015181600401908051906020019061084e9291906111f1565b5060a0820151816005015560c0820151816006015560e0820151816007015561010082015181600801908051906020019061088a9291906111f1565b50905050600454600360008c815260200190815260200160002081905550897fa854a749979502a204992acac225fdcbf427947356505ac9c7126f6244f1434460405160405180910390a250505050505050505050565b60036020528060005260406000206000915090505481565b6001602052806000526040600020600091509050806000015490806001018054600181600116156101000203166002900480601f0160208091040260200160405190810160405280929190818152602001828054600181600116156101000203166002900480156109ab5780601f10610980576101008083540402835291602001916109ab565b820191906000526020600020905b81548152906001019060200180831161098e57829003601f168201915b505050505090806002018054600181600116156101000203166002900480601f016020809104026020016040519081016040528092919081815260200182805460018160011615610100020316600290048015610a495780601f10610a1e57610100808354040283529160200191610a49565b820191906000526020600020905b815481529060010190602001808311610a2c57829003601f168201915b505050505090806003018054600181600116156101000203166002900480601f016020809104026020016040519081016040528092919081815260200182805460018160011615610100020316600290048015610ae75780601f10610abc57610100808354040283529160200191610ae7565b820191906000526020600020905b815481529060010190602001808311610aca57829003601f168201915b505050505090806004018054600181600116156101000203166002900480601f016020809104026020016040519081016040528092919081815260200182805460018160011615610100020316600290048015610b855780601f10610b5a57610100808354040283529160200191610b85565b820191906000526020600020905b815481529060010190602001808311610b6857829003601f168201915b505050505090806005018054600181600116156101000203166002900480601f016020809104026020016040519081016040528092919081815260200182805460018160011615610100020316600290048015610c235780601f10610bf857610100808354040283529160200191610c23565b820191906000526020600020905b815481529060010190602001808311610c0657829003601f168201915b505050505090806006018054600181600116156101000203166002900480601f016020809104026020016040519081016040528092919081815260200182805460018160011615610100020316600290048015610cc15780601f10610c9657610100808354040283529160200191610cc1565b820191906000526020600020905b815481529060010190602001808311610ca457829003601f168201915b5050505050905087565b6000806003600084815260200190815260200160002054905080915050919050565b600060016000836000015181526020019081526020016000206000015414610d4a576040517f08c379a0000000000000000000000000000000000000000000000000000000008152600401610d4190611c0a565b60405180910390fd5b600081602001515111610d92576040517f08c379a0000000000000000000000000000000000000000000000000000000008152600401610d8990611b6a565b60405180910390fd5b600081604001515111610dda576040517f08c379a0000000000000000000000000000000000000000000000000000000008152600401610dd190611b0a565b60405180910390fd5b600081606001515111610e22576040517f08c379a0000000000000000000000000000000000000000000000000000000008152600401610e1990611bea565b60405180910390fd5b600081608001515111610e6a576040517f08c379a0000000000000000000000000000000000000000000000000000000008152600401610e6190611c4a565b60405180910390fd5b60008160a001515111610eb2576040517f08c379a0000000000000000000000000000000000000000000000000000000008152600401610ea990611b4a565b60405180910390fd5b60008160c001515111610efa576040517f08c379a0000000000000000000000000000000000000000000000000000000008152600401610ef190611c6a565b60405180910390fd5b50565b6000806000836000015181526020019081526020016000206000015414610f59576040517f08c379a0000000000000000000000000000000000000000000000000000000008152600401610f5090611c0a565b60405180910390fd5b600081602001515111610fa1576040517f08c379a0000000000000000000000000000000000000000000000000000000008152600401610f9890611c8a565b60405180910390fd5b600081604001515111610fe9576040517f08c379a0000000000000000000000000000000000000000000000000000000008152600401610fe090611bca565b60405180910390fd5b60008160a001511180156110015750601f8160a00151105b611040576040517f08c379a000000000000000000000000000000000000000000000000000000000815260040161103790611aea565b60405180910390fd5b60008160c001511180156110585750600d8160c00151105b611097576040517f08c379a000000000000000000000000000000000000000000000000000000000815260040161108e90611baa565b60405180910390fd5b60008160e00151116110de576040517f08c379a00000000000000000000000000000000000000000000000000000000081526004016110d590611c2a565b60405180910390fd5b6060816080015190506040516110f390611ac0565b604051809103902081805190602001201480611128575060405161111690611ad5565b60405180910390208180519060200120145b611167576040517f08c379a000000000000000000000000000000000000000000000000000000000815260040161115e90611b2a565b60405180910390fd5b600082610100015151116111b0576040517f08c379a00000000000000000000000000000000000000000000000000000000081526004016111a790611b8a565b60405180910390fd5b5050565b6040518060e00160405280600081526020016060815260200160608152602001606081526020016060815260200160608152602001606081525090565b828054600181600116156101000203166002900490600052602060002090601f016020900481019282601f1061123257805160ff1916838001178555611260565b82800160010185558215611260579182015b8281111561125f578251825591602001919060010190611244565b5b50905061126d91906112bd565b5090565b6040518061012001604052806000815260200160608152602001606081526020016060815260200160608152602001600081526020016000815260200160008152602001606081525090565b6112df91905b808211156112db5760008160009055506001016112c3565b5090565b90565b600082601f8301126112f357600080fd5b813561130661130182611e6b565b611e3e565b9150808252602083016020830185838301111561132257600080fd5b61132d838284611ec8565b50505092915050565b60008135905061134581611f1b565b92915050565b60006020828403121561135d57600080fd5b600061136b84828501611336565b91505092915050565b600080600080600080600060e0888a03121561138f57600080fd5b600061139d8a828b01611336565b975050602088013567ffffffffffffffff8111156113ba57600080fd5b6113c68a828b016112e2565b965050604088013567ffffffffffffffff8111156113e357600080fd5b6113ef8a828b016112e2565b955050606088013567ffffffffffffffff81111561140c57600080fd5b6114188a828b016112e2565b945050608088013567ffffffffffffffff81111561143557600080fd5b6114418a828b016112e2565b93505060a088013567ffffffffffffffff81111561145e57600080fd5b61146a8a828b016112e2565b92505060c088013567ffffffffffffffff81111561148757600080fd5b6114938a828b016112e2565b91505092959891949750929550565b60008060008060008060008060006101208a8c0312156114c157600080fd5b60006114cf8c828d01611336565b99505060208a013567ffffffffffffffff8111156114ec57600080fd5b6114f88c828d016112e2565b98505060408a013567ffffffffffffffff81111561151557600080fd5b6115218c828d016112e2565b97505060608a013567ffffffffffffffff81111561153e57600080fd5b61154a8c828d016112e2565b96505060808a013567ffffffffffffffff81111561156757600080fd5b6115738c828d016112e2565b95505060a06115848c828d01611336565b94505060c06115958c828d01611336565b93505060e06115a68c828d01611336565b9250506101008a013567ffffffffffffffff8111156115c457600080fd5b6115d08c828d016112e2565b9150509295985092959850929598565b60006115eb82611e97565b6115f58185611ea2565b9350611605818560208601611ed7565b61160e81611f0a565b840191505092915050565b6000611626600983611ea2565b91507f77726f6e672064617900000000000000000000000000000000000000000000006000830152602082019050919050565b6000611666601883611ea2565b91507f6d6f74686572206d757374206e6f7420626520656d70747900000000000000006000830152602082019050919050565b60006116a6601983611ea2565b91507f67656e646572206d757374206e6f74206265204d206f722046000000000000006000830152602082019050919050565b60006116e6602583611ea2565b91507f6d617465726e616c4772616e64666174686572206d757374206e6f742062652060008301527f656d7074790000000000000000000000000000000000000000000000000000006020830152604082019050919050565b600061174c600183611eb3565b91507f4d000000000000000000000000000000000000000000000000000000000000006000830152600182019050919050565b600061178c601883611ea2565b91507f666174686572206d757374206e6f7420626520656d70747900000000000000006000830152602082019050919050565b60006117cc601683611ea2565b91507f686f7572206d757374206e6f7420626520656d707479000000000000000000006000830152602082019050919050565b600061180c600b83611ea2565b91507f77726f6e67206d6f6e74680000000000000000000000000000000000000000006000830152602082019050919050565b600061184c601683611ea2565b91507f63697479206d757374206e6f7420626520656d707479000000000000000000006000830152602082019050919050565b600061188c602583611ea2565b91507f70617465726e616c4772616e64666174686572206d757374206e6f742062652060008301527f656d7074790000000000000000000000000000000000000000000000000000006020830152604082019050919050565b60006118f2601383611ea2565b91507f636f6465206d75737420626520756e69717565000000000000000000000000006000830152602082019050919050565b6000611932601683611ea2565b91507f79656172206d757374206e6f7420626520656d707479000000000000000000006000830152602082019050919050565b6000611972602583611ea2565b91507f70617465726e616c4772616e646d6f74686572206d757374206e6f742062652060008301527f656d7074790000000000000000000000000000000000000000000000000000006020830152604082019050919050565b60006119d8602583611ea2565b91507f6d617465726e616c4772616e646d6f74686572206d757374206e6f742062652060008301527f656d7074790000000000000000000000000000000000000000000000000000006020830152604082019050919050565b6000611a3e600183611eb3565b91507f46000000000000000000000000000000000000000000000000000000000000006000830152600182019050919050565b6000611a7e601683611ea2565b91507f6e616d65206d757374206e6f7420626520656d707479000000000000000000006000830152602082019050919050565b611aba81611ebe565b82525050565b6000611acb8261173f565b9150819050919050565b6000611ae082611a31565b9150819050919050565b60006020820190508181036000830152611b0381611619565b9050919050565b60006020820190508181036000830152611b2381611659565b9050919050565b60006020820190508181036000830152611b4381611699565b9050919050565b60006020820190508181036000830152611b63816116d9565b9050919050565b60006020820190508181036000830152611b838161177f565b9050919050565b60006020820190508181036000830152611ba3816117bf565b9050919050565b60006020820190508181036000830152611bc3816117ff565b9050919050565b60006020820190508181036000830152611be38161183f565b9050919050565b60006020820190508181036000830152611c038161187f565b9050919050565b60006020820190508181036000830152611c23816118e5565b9050919050565b60006020820190508181036000830152611c4381611925565b9050919050565b60006020820190508181036000830152611c6381611965565b9050919050565b60006020820190508181036000830152611c83816119cb565b9050919050565b60006020820190508181036000830152611ca381611a71565b9050919050565b6000602082019050611cbf6000830184611ab1565b92915050565b6000604082019050611cda6000830185611ab1565b8181036020830152611cec81846115e0565b90509392505050565b600060e082019050611d0a600083018a611ab1565b8181036020830152611d1c81896115e0565b90508181036040830152611d3081886115e0565b90508181036060830152611d4481876115e0565b90508181036080830152611d5881866115e0565b905081810360a0830152611d6c81856115e0565b905081810360c0830152611d8081846115e0565b905098975050505050505050565b600061012082019050611da4600083018c611ab1565b8181036020830152611db6818b6115e0565b90508181036040830152611dca818a6115e0565b90508181036060830152611dde81896115e0565b90508181036080830152611df281886115e0565b9050611e0160a0830187611ab1565b611e0e60c0830186611ab1565b611e1b60e0830185611ab1565b818103610100830152611e2e81846115e0565b90509a9950505050505050505050565b6000604051905081810181811067ffffffffffffffff82111715611e6157600080fd5b8060405250919050565b600067ffffffffffffffff821115611e8257600080fd5b601f19601f8301169050602081019050919050565b600081519050919050565b600082825260208201905092915050565b600081905092915050565b6000819050919050565b82818337600083830152505050565b60005b83811015611ef5578082015181840152602081019050611eda565b83811115611f04576000848401525b50505050565b6000601f19601f8301169050919050565b611f2481611ebe565b8114611f2f57600080fd5b5056fea265627a7a72305820392e29f71027dae73c69e24f0ec462922eb050c288da82ef43845a7adee91f8f6c6578706572696d656e74616cf50037",
  "source": "pragma solidity 0.5.8;\npragma experimental ABIEncoderV2;\n\ncontract Notary {\n\n    event createdEvent (\n        uint indexed _code\n    );\n\n    struct Person {\n        uint code;\n        string name;\n        string city;\n        string state;\n        string gender;\n        uint day;\n        uint month;\n        uint year;\n        string hour;\n    }\n\n    struct Relatives {\n        uint code;\n        string father;\n        string mother;\n        string paternalGrandfather;\n        string paternalGrandmother;\n        string maternalGrandfather;\n        string maternalGrandmother;\n    }\n\n    struct Extra {\n        uint code;\n        string witness;\n    }\n    // Read/write people\n    mapping(uint => Person) public people;\n    mapping(uint => Relatives) public relativeList;\n    mapping(uint => Extra) public extras;\n    mapping(uint => uint) public codePosition;\n    uint public certificateCount;\n\n    constructor() public {}\n\n    function createPerson ( uint _code,\n                            string memory _name,\n                            string memory _city,\n                            string memory _state,\n                            string memory _gender,\n                            uint _day,\n                            uint _month,\n                            uint _year,\n                            string memory _hour) public {\n        certificateCount ++;\n        Person memory person;\n        person.code = _code;\n        person.name = _name;\n        person.city = _city;\n        person.state = _state;\n        person.gender = _gender;\n        person.day = _day;\n        person.month = _month;\n        person.year = _year;\n        person.hour = _hour;\n        \n        validatePerson(person);\n\n        people[certificateCount] = person;\n        codePosition[_code] = certificateCount;\n\n        emit createdEvent(_code);\n    }\n\n    function createRelatives ( uint _code,\n                                string memory _father,\n                                string memory _mother,\n                                string memory _paternalGrandfather,\n                                string memory _paternalGrandmother,\n                                string memory _maternalGrandfather,\n                                string memory _maternalGrandmother) public {\n        Relatives memory relatives;\n        relatives.code = _code;\n        relatives.father = _father;\n        relatives.mother = _mother;\n        relatives.paternalGrandfather = _paternalGrandfather;\n        relatives.paternalGrandmother = _paternalGrandmother;\n        relatives.maternalGrandfather = _maternalGrandfather;\n        relatives.maternalGrandmother = _maternalGrandmother;\n\n        validateRelatives(relatives);\n\n        relativeList[certificateCount] = relatives;\n\n        emit createdEvent(_code);\n    }\n\n    function getPersonKey(uint _code) public view returns(uint) {\n        uint position = codePosition[_code];\n        return position;\n    }\n\n    function validatePerson(Person memory person) private {\n        require(people[person.code].code == 0, 'code must be unique');\n        require(bytes(person.name).length > 0, 'name must not be empty');\n        require(bytes(person.city).length > 0, 'city must not be empty');\n        require(person.day > 0 && person.day < 31, 'wrong day');\n        require(person.month > 0 && person.month < 13, 'wrong month');\n        require(person.year > 0, 'year must not be empty');\n        bytes memory gender = bytes(person.gender);\n        require(keccak256(gender) == keccak256('M') || keccak256(gender) == keccak256('F'), 'gender must not be M or F');\n        require(bytes(person.hour).length > 0, 'hour must not be empty');\n    }\n\n    function validateRelatives(Relatives memory relative) private {\n        require(relativeList[relative.code].code == 0, 'code must be unique');\n        require(bytes(relative.father).length > 0, 'father must not be empty');\n        require(bytes(relative.mother).length > 0, 'mother must not be empty');\n        require(bytes(relative.paternalGrandfather).length > 0, 'paternalGrandfather must not be empty');\n        require(bytes(relative.paternalGrandmother).length > 0, 'paternalGrandmother must not be empty');\n        require(bytes(relative.maternalGrandfather).length > 0, 'maternalGrandfather must not be empty');\n        require(bytes(relative.maternalGrandmother).length > 0, 'maternalGrandmother must not be empty');\n        // require(bytes(person.witness).length > 0, 'witness must not be empty');\n    }\n}",
  "sourcePath": "/Users/douglasmandarino/Documents/PUC/Blockchain/BirthCertificate/contracts/Notary.sol",
  "compiler": {
    "name": "solc",
    "version": "0.5.8+commit.23d335f2.Emscripten.clang"
  },
  "schemaVersion": "3.0.16",
  "updatedAt": "2019-10-25T08:19:01.251Z",
  "devdoc": {
    "methods": {}
  },
  "userdoc": {
    "methods": {}
  }
}